{
  "transactions": [
    {
      "hash": "0x3914e1af7755acdaba2dd71c88f04ad4f59a29d8869dac27d5f07b7a1eb737c7",
      "transactionType": "CALL",
      "contractName": null,
      "contractAddress": "0x0165878a594ca255338adfa4d48449f69242eb8f",
      "function": "setUserCompliance(address,bool,bytes32)",
      "arguments": [
        "0xf39Fd6e51aad88F6F4ce6aB8827279cffFb92266",
        "true",
        "0xc7e473bda59eca1142c4f4668171c63902266a759b99a17e40585c025faad577"
      ],
      "transaction": {
        "from": "0xf39fd6e51aad88f6f4ce6ab8827279cfffb92266",
        "to": "0x0165878a594ca255338adfa4d48449f69242eb8f",
        "gas": "0x1936e",
        "value": "0x0",
        "input": "0x1806f92c000000000000000000000000f39fd6e51aad88f6f4ce6ab8827279cfffb922660000000000000000000000000000000000000000000000000000000000000001c7e473bda59eca1142c4f4668171c63902266a759b99a17e40585c025faad577",
        "nonce": "0xb",
        "chainId": "0x7a69"
      },
      "additionalContracts": [],
      "isFixedGasLimit": false
    },
    {
      "hash": "0x21fe8db1dca9ce020a482d6f76297c4112bfdf0b05448c9591fe7dffaf321d80",
      "transactionType": "CALL",
      "contractName": null,
      "contractAddress": "0xa513e6e4b8f2a923d98304ec87f64353c4d5c853",
      "function": "submitProof((bytes32,bytes,uint256,address))",
      "arguments": [
        "(0xe7121104cd52418ab33dcf0f19d2251fa5bcced5fafc579721e039240ff86d1e, 0xc7e473bda59eca1142c4f4668171c63902266a759b99a17e40585c025faad577, 1763966180, 0xf39Fd6e51aad88F6F4ce6aB8827279cffFb92266)"
      ],
      "transaction": {
        "from": "0xf39fd6e51aad88f6f4ce6ab8827279cfffb92266",
        "to": "0xa513e6e4b8f2a923d98304ec87f64353c4d5c853",
        "gas": "0x19ece",
        "value": "0x0",
        "input": "0x61cd93c80000000000000000000000000000000000000000000000000000000000000020e7121104cd52418ab33dcf0f19d2251fa5bcced5fafc579721e039240ff86d1e0000000000000000000000000000000000000000000000000000000000000080000000000000000000000000000000000000000000000000000000006923fce4000000000000000000000000f39fd6e51aad88f6f4ce6ab8827279cfffb922660000000000000000000000000000000000000000000000000000000000000020c7e473bda59eca1142c4f4668171c63902266a759b99a17e40585c025faad577",
        "nonce": "0xc",
        "chainId": "0x7a69"
      },
      "additionalContracts": [],
      "isFixedGasLimit": false
    }
  ],
  "receipts": [
    {
      "status": "0x1",
      "cumulativeGasUsed": "0x113da",
      "logs": [
        {
          "address": "0x0165878a594ca255338adfa4d48449f69242eb8f",
          "topics": [
            "0x3770c7285d98f320f88c0ad6aa28f3fa77a7a8fbe3099520299db72cb7426002",
            "0x000000000000000000000000f39fd6e51aad88f6f4ce6ab8827279cfffb92266"
          ],
          "data": "0x0000000000000000000000000000000000000000000000000000000000000001c7e473bda59eca1142c4f4668171c63902266a759b99a17e40585c025faad577",
          "blockHash": "0x3c8c98c76b65522c349eddf39c271010a97807d13105f37dded380e78fdec7d9",
          "blockNumber": "0xc",
          "blockTimestamp": "0x6923fd14",
          "transactionHash": "0x3914e1af7755acdaba2dd71c88f04ad4f59a29d8869dac27d5f07b7a1eb737c7",
          "transactionIndex": "0x0",
          "logIndex": "0x0",
          "removed": false
        }
      ],
      "logsBloom": "0x00000000000000000000000000000000000000000000000000000000000000000000000000000000000000000000000000000000000000000000000000000000001000000000000000000000000000000000000000000000000000000000000000000000000000000000000100000000000000000000000000000000000000040000000000000000000000000000000000000000000000000000000000000000000000000000000200000000000000000000000000000000000000000000000000000004000000200000000000000000000000002000000000000000000000000000000000000000000000000000000020000000000000000000000000000000",
      "type": "0x2",
      "transactionHash": "0x3914e1af7755acdaba2dd71c88f04ad4f59a29d8869dac27d5f07b7a1eb737c7",
      "transactionIndex": "0x0",
      "blockHash": "0x3c8c98c76b65522c349eddf39c271010a97807d13105f37dded380e78fdec7d9",
      "blockNumber": "0xc",
      "gasUsed": "0x113da",
      "effectiveGasPrice": "0xe6929fd",
      "blobGasPrice": "0x1",
      "from": "0xf39fd6e51aad88f6f4ce6ab8827279cfffb92266",
      "to": "0x0165878a594ca255338adfa4d48449f69242eb8f",
      "contractAddress": null
    },
    {
      "status": "0x1",
      "cumulativeGasUsed": "0x12c50",
      "logs": [
        {
          "address": "0xa513e6e4b8f2a923d98304ec87f64353c4d5c853",
          "topics": [
            "0x3cbd2fea20b478de3a1ffaf47011735f993c2c4e13dc9a4f039f3adac8f4892f",
            "0x000000000000000000000000f39fd6e51aad88f6f4ce6ab8827279cfffb92266"
          ],
          "data": "0xe7121104cd52418ab33dcf0f19d2251fa5bcced5fafc579721e039240ff86d1ec7e473bda59eca1142c4f4668171c63902266a759b99a17e40585c025faad577",
          "blockHash": "0x48e1287b1343e8450f86e7bc46343b2906d06d48cda292fd5973aa93c6fadb5f",
          "blockNumber": "0xd",
          "blockTimestamp": "0x6923fd14",
          "transactionHash": "0x21fe8db1dca9ce020a482d6f76297c4112bfdf0b05448c9591fe7dffaf321d80",
          "transactionIndex": "0x0",
          "logIndex": "0x0",
          "removed": false
        }
      ],
      "logsBloom": "0x00000000000000000000000000000000000000000000000000000000000000010000000000000000001000000000000000000000000000000000000000000000000000000000000000000000000000000000000010000000010000000000000000000000000000000000000100000000000000000000000000000000000000000000000000000000000000000000000000000000000000000000000000000000000008000000000000000000000000000000000000000000000000000000000000000000000000200000000000000000000000002000000000000000000000000000000000000000000000000000000000000000004000000000000000000000",
      "type": "0x2",
      "transactionHash": "0x21fe8db1dca9ce020a482d6f76297c4112bfdf0b05448c9591fe7dffaf321d80",
      "transactionIndex": "0x0",
      "blockHash": "0x48e1287b1343e8450f86e7bc46343b2906d06d48cda292fd5973aa93c6fadb5f",
      "blockNumber": "0xd",
      "gasUsed": "0x12c50",
      "effectiveGasPrice": "0xc9e3085",
      "blobGasPrice": "0x1",
      "from": "0xf39fd6e51aad88f6f4ce6ab8827279cfffb92266",
      "to": "0xa513e6e4b8f2a923d98304ec87f64353c4d5c853",
      "contractAddress": null
    }
  ],
  "libraries": [],
  "pending": [],
  "returns": {},
  "timestamp": 1763966228094,
  "chain": 31337,
  "commit": "fd61488"
}