{
  "transactions": [
    {
      "hash": "0x2011c26323f411616374ea2c6be8f973d4483554d92a46948f9880e701d94e7d",
      "transactionType": "CALL",
      "contractName": null,
      "contractAddress": "0x9fe46736679d2d9a65f0992f2272de9f3c7fa6e0",
      "function": "setUserCompliance(address,bool,bytes32)",
      "arguments": [
        "0xf39Fd6e51aad88F6F4ce6aB8827279cffFb92266",
        "true",
        "0xc7e473bda59eca1142c4f4668171c63902266a759b99a17e40585c025faad577"
      ],
      "transaction": {
        "from": "0xf39fd6e51aad88f6f4ce6ab8827279cfffb92266",
        "to": "0x9fe46736679d2d9a65f0992f2272de9f3c7fa6e0",
        "gas": "0x1936e",
        "value": "0x0",
        "input": "0x1806f92c000000000000000000000000f39fd6e51aad88f6f4ce6ab8827279cfffb922660000000000000000000000000000000000000000000000000000000000000001c7e473bda59eca1142c4f4668171c63902266a759b99a17e40585c025faad577",
        "nonce": "0x4",
        "chainId": "0x7a69"
      },
      "additionalContracts": [],
      "isFixedGasLimit": false
    },
    {
      "hash": "0x9be610cf857dd1b685f3575907b22a48b6adf56cfea0ada93c11c75f93378e8d",
      "transactionType": "CALL",
      "contractName": null,
      "contractAddress": "0xcf7ed3acca5a467e9e704c703e8d87f634fb0fc9",
      "function": "submitProof((bytes32,bytes,uint256,address))",
      "arguments": [
        "(0x587f1c60883dc34765bea831da1b1cece184b0ff60d97bfd1bb2e3703ad8cb9c, 0xc7e473bda59eca1142c4f4668171c63902266a759b99a17e40585c025faad577, 1763966011, 0xf39Fd6e51aad88F6F4ce6aB8827279cffFb92266)"
      ],
      "transaction": {
        "from": "0xf39fd6e51aad88f6f4ce6ab8827279cfffb92266",
        "to": "0xcf7ed3acca5a467e9e704c703e8d87f634fb0fc9",
        "gas": "0x19ece",
        "value": "0x0",
        "input": "0x61cd93c80000000000000000000000000000000000000000000000000000000000000020587f1c60883dc34765bea831da1b1cece184b0ff60d97bfd1bb2e3703ad8cb9c0000000000000000000000000000000000000000000000000000000000000080000000000000000000000000000000000000000000000000000000006923fc3b000000000000000000000000f39fd6e51aad88f6f4ce6ab8827279cfffb922660000000000000000000000000000000000000000000000000000000000000020c7e473bda59eca1142c4f4668171c63902266a759b99a17e40585c025faad577",
        "nonce": "0x5",
        "chainId": "0x7a69"
      },
      "additionalContracts": [],
      "isFixedGasLimit": false
    }
  ],
  "receipts": [
    {
      "status": "0x1",
      "cumulativeGasUsed": "0x113da",
      "logs": [
        {
          "address": "0x9fe46736679d2d9a65f0992f2272de9f3c7fa6e0",
          "topics": [
            "0x3770c7285d98f320f88c0ad6aa28f3fa77a7a8fbe3099520299db72cb7426002",
            "0x000000000000000000000000f39fd6e51aad88f6f4ce6ab8827279cfffb92266"
          ],
          "data": "0x0000000000000000000000000000000000000000000000000000000000000001c7e473bda59eca1142c4f4668171c63902266a759b99a17e40585c025faad577",
          "blockHash": "0x1ed660f6df3ad54fd501ffbf1df670169ebf1692ffcf40e5f37543925a82562a",
          "blockNumber": "0x5",
          "blockTimestamp": "0x6923fc65",
          "transactionHash": "0x2011c26323f411616374ea2c6be8f973d4483554d92a46948f9880e701d94e7d",
          "transactionIndex": "0x0",
          "logIndex": "0x0",
          "removed": false
        }
      ],
      "logsBloom": "0x00000000000000000000000000000000000000000000000000000000000000000000000000000000000000000000000000000000000040200000000000000000000000000000000000000000000000000000000000000000000000000000000000000000000000000000000100000000000000000000000000000000000000040000000000000000000000000000000000000000000000000000000000000000000000000000000200000000000000000000000000000000000000000000000000000000000000200000000000000000000000002000000000000000000000000000000000000000000000000000000020000000000000400000000000000000",
      "type": "0x2",
      "transactionHash": "0x2011c26323f411616374ea2c6be8f973d4483554d92a46948f9880e701d94e7d",
      "transactionIndex": "0x0",
      "blockHash": "0x1ed660f6df3ad54fd501ffbf1df670169ebf1692ffcf40e5f37543925a82562a",
      "blockNumber": "0x5",
      "gasUsed": "0x113da",
      "effectiveGasPrice": "0x24090039",
      "blobGasPrice": "0x1",
      "from": "0xf39fd6e51aad88f6f4ce6ab8827279cfffb92266",
      "to": "0x9fe46736679d2d9a65f0992f2272de9f3c7fa6e0",
      "contractAddress": null
    },
    {
      "status": "0x1",
      "cumulativeGasUsed": "0x12c50",
      "logs": [
        {
          "address": "0xcf7ed3acca5a467e9e704c703e8d87f634fb0fc9",
          "topics": [
            "0x3cbd2fea20b478de3a1ffaf47011735f993c2c4e13dc9a4f039f3adac8f4892f",
            "0x000000000000000000000000f39fd6e51aad88f6f4ce6ab8827279cfffb92266"
          ],
          "data": "0x587f1c60883dc34765bea831da1b1cece184b0ff60d97bfd1bb2e3703ad8cb9cc7e473bda59eca1142c4f4668171c63902266a759b99a17e40585c025faad577",
          "blockHash": "0x1c112683d77bf83ee3ef00c3eb5c005a9481d6d9ea6c04b1d18760ee4026c0d2",
          "blockNumber": "0x6",
          "blockTimestamp": "0x6923fc65",
          "transactionHash": "0x9be610cf857dd1b685f3575907b22a48b6adf56cfea0ada93c11c75f93378e8d",
          "transactionIndex": "0x0",
          "logIndex": "0x0",
          "removed": false
        }
      ],
      "logsBloom": "0x00000000000000000000000000000000000000000000000000000000000000000000000000000000001000000000080000000000000000000000000000000001000000000000000000000000000000000000000000000000000000000000000000000000000000000000000100000000000000000000000000000000000000000000000008000000000000000000000000000000000000000000000000000000000008000000000000000000000000000000000000000000000000000000000000000000000000200000000000000000000000002000000000000000000000000000000000000000000000000000000000000000004000000000000000000000",
      "type": "0x2",
      "transactionHash": "0x9be610cf857dd1b685f3575907b22a48b6adf56cfea0ada93c11c75f93378e8d",
      "transactionIndex": "0x0",
      "blockHash": "0x1c112683d77bf83ee3ef00c3eb5c005a9481d6d9ea6c04b1d18760ee4026c0d2",
      "blockNumber": "0x6",
      "gasUsed": "0x12c50",
      "effectiveGasPrice": "0x1f8d4df6",
      "blobGasPrice": "0x1",
      "from": "0xf39fd6e51aad88f6f4ce6ab8827279cfffb92266",
      "to": "0xcf7ed3acca5a467e9e704c703e8d87f634fb0fc9",
      "contractAddress": null
    }
  ],
  "libraries": [],
  "pending": [],
  "returns": {},
  "timestamp": 1763966053803,
  "chain": 31337,
  "commit": "fd61488"
}