{
  "transactions": [
    {
      "hash": "0xe0618917bc795448dfb030edd31b1daa0a8fa65becf49ce59dd6acf1b7f3ccd6",
      "transactionType": "CALL",
      "contractName": null,
      "contractAddress": "0x0165878a594ca255338adfa4d48449f69242eb8f",
      "function": "setUserCompliance(address,bool,bytes32)",
      "arguments": [
        "0xf39Fd6e51aad88F6F4ce6aB8827279cffFb92266",
        "true",
        "0xc7e473bda59eca1142c4f4668171c63902266a759b99a17e40585c025faad577"
      ],
      "transaction": {
        "from": "0xf39fd6e51aad88f6f4ce6ab8827279cfffb92266",
        "to": "0x0165878a594ca255338adfa4d48449f69242eb8f",
        "gas": "0xb00f",
        "value": "0x0",
        "input": "0x1806f92c000000000000000000000000f39fd6e51aad88f6f4ce6ab8827279cfffb922660000000000000000000000000000000000000000000000000000000000000001c7e473bda59eca1142c4f4668171c63902266a759b99a17e40585c025faad577",
        "nonce": "0x10",
        "chainId": "0x7a69"
      },
      "additionalContracts": [],
      "isFixedGasLimit": false
    },
    {
      "hash": "0xbe770d31b763e7ff158a686eb8d2caa9cfdfbef5db611e7965647ac7670dea0d",
      "transactionType": "CALL",
      "contractName": null,
      "contractAddress": "0xa513e6e4b8f2a923d98304ec87f64353c4d5c853",
      "function": "submitProof((bytes32,bytes,uint256,address))",
      "arguments": [
        "(0x26cf097422649c571fc3a8f8e5d112a4e638e0aedc3960d0501b98d272e1e825, 0xc7e473bda59eca1142c4f4668171c63902266a759b99a17e40585c025faad577, 1763966244, 0xf39Fd6e51aad88F6F4ce6aB8827279cffFb92266)"
      ],
      "transaction": {
        "from": "0xf39fd6e51aad88f6f4ce6ab8827279cfffb92266",
        "to": "0xa513e6e4b8f2a923d98304ec87f64353c4d5c853",
        "gas": "0x1336f",
        "value": "0x0",
        "input": "0x61cd93c8000000000000000000000000000000000000000000000000000000000000002026cf097422649c571fc3a8f8e5d112a4e638e0aedc3960d0501b98d272e1e8250000000000000000000000000000000000000000000000000000000000000080000000000000000000000000000000000000000000000000000000006923fd24000000000000000000000000f39fd6e51aad88f6f4ce6ab8827279cfffb922660000000000000000000000000000000000000000000000000000000000000020c7e473bda59eca1142c4f4668171c63902266a759b99a17e40585c025faad577",
        "nonce": "0x11",
        "chainId": "0x7a69"
      },
      "additionalContracts": [],
      "isFixedGasLimit": false
    }
  ],
  "receipts": [
    {
      "status": "0x1",
      "cumulativeGasUsed": "0x7862",
      "logs": [
        {
          "address": "0x0165878a594ca255338adfa4d48449f69242eb8f",
          "topics": [
            "0x3770c7285d98f320f88c0ad6aa28f3fa77a7a8fbe3099520299db72cb7426002",
            "0x000000000000000000000000f39fd6e51aad88f6f4ce6ab8827279cfffb92266"
          ],
          "data": "0x0000000000000000000000000000000000000000000000000000000000000001c7e473bda59eca1142c4f4668171c63902266a759b99a17e40585c025faad577",
          "blockHash": "0xae6a9fd43916dcb9a453c215f730dcdc2b0ad6caaa501fe442ac6be17616b420",
          "blockNumber": "0x11",
          "blockTimestamp": "0x6923fdff",
          "transactionHash": "0xe0618917bc795448dfb030edd31b1daa0a8fa65becf49ce59dd6acf1b7f3ccd6",
          "transactionIndex": "0x0",
          "logIndex": "0x0",
          "removed": false
        }
      ],
      "logsBloom": "0x00000000000000000000000000000000000000000000000000000000000000000000000000000000000000000000000000000000000000000000000000000000001000000000000000000000000000000000000000000000000000000000000000000000000000000000000100000000000000000000000000000000000000040000000000000000000000000000000000000000000000000000000000000000000000000000000200000000000000000000000000000000000000000000000000000004000000200000000000000000000000002000000000000000000000000000000000000000000000000000000020000000000000000000000000000000",
      "type": "0x2",
      "transactionHash": "0xe0618917bc795448dfb030edd31b1daa0a8fa65becf49ce59dd6acf1b7f3ccd6",
      "transactionIndex": "0x0",
      "blockHash": "0xae6a9fd43916dcb9a453c215f730dcdc2b0ad6caaa501fe442ac6be17616b420",
      "blockNumber": "0x11",
      "gasUsed": "0x7862",
      "effectiveGasPrice": "0x769b973",
      "blobGasPrice": "0x1",
      "from": "0xf39fd6e51aad88f6f4ce6ab8827279cfffb92266",
      "to": "0x0165878a594ca255338adfa4d48449f69242eb8f",
      "contractAddress": null
    },
    {
      "status": "0x1",
      "cumulativeGasUsed": "0xde94",
      "logs": [
        {
          "address": "0xa513e6e4b8f2a923d98304ec87f64353c4d5c853",
          "topics": [
            "0x3cbd2fea20b478de3a1ffaf47011735f993c2c4e13dc9a4f039f3adac8f4892f",
            "0x000000000000000000000000f39fd6e51aad88f6f4ce6ab8827279cfffb92266"
          ],
          "data": "0x26cf097422649c571fc3a8f8e5d112a4e638e0aedc3960d0501b98d272e1e825c7e473bda59eca1142c4f4668171c63902266a759b99a17e40585c025faad577",
          "blockHash": "0xffa0b880fd0f565f510d69635c2d7812b43952ffc24c18ddccfecd04049d3170",
          "blockNumber": "0x12",
          "blockTimestamp": "0x6923fdff",
          "transactionHash": "0xbe770d31b763e7ff158a686eb8d2caa9cfdfbef5db611e7965647ac7670dea0d",
          "transactionIndex": "0x0",
          "logIndex": "0x0",
          "removed": false
        }
      ],
      "logsBloom": "0x00000000000000000000000000000000000000000000000000000000000000010000000000000000001000000000000000000000000000000000000000000000000000000000000000000000000000000000000010000000010000000000000000000000000000000000000100000000000000000000000000000000000000000000000000000000000000000000000000000000000000000000000000000000000008000000000000000000000000000000000000000000000000000000000000000000000000200000000000000000000000002000000000000000000000000000000000000000000000000000000000000000004000000000000000000000",
      "type": "0x2",
      "transactionHash": "0xbe770d31b763e7ff158a686eb8d2caa9cfdfbef5db611e7965647ac7670dea0d",
      "transactionIndex": "0x0",
      "blockHash": "0xffa0b880fd0f565f510d69635c2d7812b43952ffc24c18ddccfecd04049d3170",
      "blockNumber": "0x12",
      "gasUsed": "0xde94",
      "effectiveGasPrice": "0x67cff09",
      "blobGasPrice": "0x1",
      "from": "0xf39fd6e51aad88f6f4ce6ab8827279cfffb92266",
      "to": "0xa513e6e4b8f2a923d98304ec87f64353c4d5c853",
      "contractAddress": null
    }
  ],
  "libraries": [],
  "pending": [],
  "returns": {},
  "timestamp": 1763966463880,
  "chain": 31337,
  "commit": "d5e8731"
}