{
  "transactions": [
    {
      "hash": "0xb07df2562c1e6e3358a20976eb3385e98b2844e3652b3b603a532899d76cd052",
      "transactionType": "CALL",
      "contractName": null,
      "contractAddress": "0x0165878a594ca255338adfa4d48449f69242eb8f",
      "function": "setUserCompliance(address,bool,bytes32)",
      "arguments": [
        "0x010Cb3C8fD0f4035D9Cc7341a9A7DB9B2bB4d6C4",
        "true",
        "0xc7e473bda59eca1142c4f4668171c63902266a759b99a17e40585c025faad577"
      ],
      "transaction": {
        "from": "0xf39fd6e51aad88f6f4ce6ab8827279cfffb92266",
        "to": "0x0165878a594ca255338adfa4d48449f69242eb8f",
        "gas": "0x1936e",
        "value": "0x0",
        "input": "0x1806f92c000000000000000000000000010cb3c8fd0f4035d9cc7341a9a7db9b2bb4d6c40000000000000000000000000000000000000000000000000000000000000001c7e473bda59eca1142c4f4668171c63902266a759b99a17e40585c025faad577",
        "nonce": "0x1e",
        "chainId": "0x7a69"
      },
      "additionalContracts": [],
      "isFixedGasLimit": false
    },
    {
      "hash": "0xf4681ed593ddc5f0780245d3884fcced397a6b484488c41341cf3a49d4d2805e",
      "transactionType": "CALL",
      "contractName": null,
      "contractAddress": "0x0165878a594ca255338adfa4d48449f69242eb8f",
      "function": "setUserCompliance(address,bool,bytes32)",
      "arguments": [
        "0xf39Fd6e51aad88F6F4ce6aB8827279cffFb92266",
        "true",
        "0xc7e473bda59eca1142c4f4668171c63902266a759b99a17e40585c025faad577"
      ],
      "transaction": {
        "from": "0xf39fd6e51aad88f6f4ce6ab8827279cfffb92266",
        "to": "0x0165878a594ca255338adfa4d48449f69242eb8f",
        "gas": "0xb00f",
        "value": "0x0",
        "input": "0x1806f92c000000000000000000000000f39fd6e51aad88f6f4ce6ab8827279cfffb922660000000000000000000000000000000000000000000000000000000000000001c7e473bda59eca1142c4f4668171c63902266a759b99a17e40585c025faad577",
        "nonce": "0x1f",
        "chainId": "0x7a69"
      },
      "additionalContracts": [],
      "isFixedGasLimit": false
    },
    {
      "hash": "0x89750ae749699e43eb4aa023d567ef8f54d74f5f7e666e267c9e148d89c3db5d",
      "transactionType": "CALL",
      "contractName": null,
      "contractAddress": "0xa513e6e4b8f2a923d98304ec87f64353c4d5c853",
      "function": "submitProof((bytes32,bytes,uint256,address))",
      "arguments": [
        "(0xaf853efbe5fe1143d29069f81187391f3e331912001fe88bb6fb1a8ce56373c9, 0xc7e473bda59eca1142c4f4668171c63902266a759b99a17e40585c025faad577, 1763968393, 0xf39Fd6e51aad88F6F4ce6aB8827279cffFb92266)"
      ],
      "transaction": {
        "from": "0xf39fd6e51aad88f6f4ce6ab8827279cfffb92266",
        "to": "0xa513e6e4b8f2a923d98304ec87f64353c4d5c853",
        "gas": "0x1335e",
        "value": "0x0",
        "input": "0x61cd93c80000000000000000000000000000000000000000000000000000000000000020af853efbe5fe1143d29069f81187391f3e331912001fe88bb6fb1a8ce56373c900000000000000000000000000000000000000000000000000000000000000800000000000000000000000000000000000000000000000000000000069240589000000000000000000000000f39fd6e51aad88f6f4ce6ab8827279cfffb922660000000000000000000000000000000000000000000000000000000000000020c7e473bda59eca1142c4f4668171c63902266a759b99a17e40585c025faad577",
        "nonce": "0x20",
        "chainId": "0x7a69"
      },
      "additionalContracts": [],
      "isFixedGasLimit": false
    }
  ],
  "receipts": [
    {
      "status": "0x1",
      "cumulativeGasUsed": "0x113da",
      "logs": [
        {
          "address": "0x0165878a594ca255338adfa4d48449f69242eb8f",
          "topics": [
            "0x3770c7285d98f320f88c0ad6aa28f3fa77a7a8fbe3099520299db72cb7426002",
            "0x000000000000000000000000010cb3c8fd0f4035d9cc7341a9a7db9b2bb4d6c4"
          ],
          "data": "0x0000000000000000000000000000000000000000000000000000000000000001c7e473bda59eca1142c4f4668171c63902266a759b99a17e40585c025faad577",
          "blockHash": "0x2896b4ac342d0bf144c37a146cddc517413e227b0c90eb99060ac41935b39007",
          "blockNumber": "0x20",
          "blockTimestamp": "0x69241f01",
          "transactionHash": "0xb07df2562c1e6e3358a20976eb3385e98b2844e3652b3b603a532899d76cd052",
          "transactionIndex": "0x0",
          "logIndex": "0x0",
          "removed": false
        }
      ],
      "logsBloom": "0x00000000000000000000000000000000000000000000000000000000000000000000000000000000000000000000000000000000000000000000000000000000001000000000000000000000000000000000000000000000000000000000000000000000000000000000000000000000000000000000000000000000000000040000000000000000000000000000000000008000000000000000000000000000000000000000000200000000000000000000000000000000000000000000000004000004000000000000000000000000000000000000000000000000000000400000000000000000000000000000000020000000000000000000000000000000",
      "type": "0x2",
      "transactionHash": "0xb07df2562c1e6e3358a20976eb3385e98b2844e3652b3b603a532899d76cd052",
      "transactionIndex": "0x0",
      "blockHash": "0x2896b4ac342d0bf144c37a146cddc517413e227b0c90eb99060ac41935b39007",
      "blockNumber": "0x20",
      "gasUsed": "0x113da",
      "effectiveGasPrice": "0x10b6418",
      "blobGasPrice": "0x1",
      "from": "0xf39fd6e51aad88f6f4ce6ab8827279cfffb92266",
      "to": "0x0165878a594ca255338adfa4d48449f69242eb8f",
      "contractAddress": null
    },
    {
      "status": "0x1",
      "cumulativeGasUsed": "0x7862",
      "logs": [
        {
          "address": "0x0165878a594ca255338adfa4d48449f69242eb8f",
          "topics": [
            "0x3770c7285d98f320f88c0ad6aa28f3fa77a7a8fbe3099520299db72cb7426002",
            "0x000000000000000000000000f39fd6e51aad88f6f4ce6ab8827279cfffb92266"
          ],
          "data": "0x0000000000000000000000000000000000000000000000000000000000000001c7e473bda59eca1142c4f4668171c63902266a759b99a17e40585c025faad577",
          "blockHash": "0x6d8ca743b004c74ad26cec0ba30fb858431f8a3e08262bc37025837c65f5ac58",
          "blockNumber": "0x21",
          "blockTimestamp": "0x69241f01",
          "transactionHash": "0xf4681ed593ddc5f0780245d3884fcced397a6b484488c41341cf3a49d4d2805e",
          "transactionIndex": "0x0",
          "logIndex": "0x0",
          "removed": false
        }
      ],
      "logsBloom": "0x00000000000000000000000000000000000000000000000000000000000000000000000000000000000000000000000000000000000000000000000000000000001000000000000000000000000000000000000000000000000000000000000000000000000000000000000100000000000000000000000000000000000000040000000000000000000000000000000000000000000000000000000000000000000000000000000200000000000000000000000000000000000000000000000000000004000000200000000000000000000000002000000000000000000000000000000000000000000000000000000020000000000000000000000000000000",
      "type": "0x2",
      "transactionHash": "0xf4681ed593ddc5f0780245d3884fcced397a6b484488c41341cf3a49d4d2805e",
      "transactionIndex": "0x0",
      "blockHash": "0x6d8ca743b004c74ad26cec0ba30fb858431f8a3e08262bc37025837c65f5ac58",
      "blockNumber": "0x21",
      "gasUsed": "0x7862",
      "effectiveGasPrice": "0xea1fde",
      "blobGasPrice": "0x1",
      "from": "0xf39fd6e51aad88f6f4ce6ab8827279cfffb92266",
      "to": "0x0165878a594ca255338adfa4d48449f69242eb8f",
      "contractAddress": null
    },
    {
      "status": "0x1",
      "cumulativeGasUsed": "0xde88",
      "logs": [
        {
          "address": "0xa513e6e4b8f2a923d98304ec87f64353c4d5c853",
          "topics": [
            "0x3cbd2fea20b478de3a1ffaf47011735f993c2c4e13dc9a4f039f3adac8f4892f",
            "0x000000000000000000000000f39fd6e51aad88f6f4ce6ab8827279cfffb92266"
          ],
          "data": "0xaf853efbe5fe1143d29069f81187391f3e331912001fe88bb6fb1a8ce56373c9c7e473bda59eca1142c4f4668171c63902266a759b99a17e40585c025faad577",
          "blockHash": "0x17c9493db9edc27b11df58ca631e94d929fed7d9054aebe0a409440373806f42",
          "blockNumber": "0x22",
          "blockTimestamp": "0x69241f01",
          "transactionHash": "0x89750ae749699e43eb4aa023d567ef8f54d74f5f7e666e267c9e148d89c3db5d",
          "transactionIndex": "0x0",
          "logIndex": "0x0",
          "removed": false
        }
      ],
      "logsBloom": "0x00000000000000000000000000000000000000000000000000000000000000010000000000000000001000000000000000000000000000000000000000000000000000000000000000000000000000000000000010000000010000000000000000000000000000000000000100000000000000000000000000000000000000000000000000000000000000000000000000000000000000000000000000000000000008000000000000000000000000000000000000000000000000000000000000000000000000200000000000000000000000002000000000000000000000000000000000000000000000000000000000000000004000000000000000000000",
      "type": "0x2",
      "transactionHash": "0x89750ae749699e43eb4aa023d567ef8f54d74f5f7e666e267c9e148d89c3db5d",
      "transactionIndex": "0x0",
      "blockHash": "0x17c9493db9edc27b11df58ca631e94d929fed7d9054aebe0a409440373806f42",
      "blockNumber": "0x22",
      "gasUsed": "0xde88",
      "effectiveGasPrice": "0xcceb47",
      "blobGasPrice": "0x1",
      "from": "0xf39fd6e51aad88f6f4ce6ab8827279cfffb92266",
      "to": "0xa513e6e4b8f2a923d98304ec87f64353c4d5c853",
      "contractAddress": null
    }
  ],
  "libraries": [],
  "pending": [],
  "returns": {},
  "timestamp": 1763974913417,
  "chain": 31337,
  "commit": "a11471f"
}