{
  "transactions": [
    {
      "hash": "0x457c05dfc6bca209acfa25330b1b8a4618ed388ac19f3b627c08c7e9ead4da74",
      "transactionType": "CALL",
      "contractName": null,
      "contractAddress": "0x0165878a594ca255338adfa4d48449f69242eb8f",
      "function": "setUserCompliance(address,bool,bytes32)",
      "arguments": [
        "0x70997970C51812dc3A010C7d01b50e0d17dc79C8",
        "true",
        "0xc7e473bda59eca1142c4f4668171c63902266a759b99a17e40585c025faad577"
      ],
      "transaction": {
        "from": "0xf39fd6e51aad88f6f4ce6ab8827279cfffb92266",
        "to": "0x0165878a594ca255338adfa4d48449f69242eb8f",
        "gas": "0xb00f",
        "value": "0x0",
        "input": "0x1806f92c00000000000000000000000070997970c51812dc3a010c7d01b50e0d17dc79c80000000000000000000000000000000000000000000000000000000000000001c7e473bda59eca1142c4f4668171c63902266a759b99a17e40585c025faad577",
        "nonce": "0x27",
        "chainId": "0x7a69"
      },
      "additionalContracts": [],
      "isFixedGasLimit": false
    },
    {
      "hash": "0x4b0c949d48bcc024fdd2413cb978da00ba5e2761d30cc28d09fc8707666d1565",
      "transactionType": "CALL",
      "contractName": null,
      "contractAddress": "0x0165878a594ca255338adfa4d48449f69242eb8f",
      "function": "setUserCompliance(address,bool,bytes32)",
      "arguments": [
        "0xf39Fd6e51aad88F6F4ce6aB8827279cffFb92266",
        "true",
        "0xc7e473bda59eca1142c4f4668171c63902266a759b99a17e40585c025faad577"
      ],
      "transaction": {
        "from": "0xf39fd6e51aad88f6f4ce6ab8827279cfffb92266",
        "to": "0x0165878a594ca255338adfa4d48449f69242eb8f",
        "gas": "0xb00f",
        "value": "0x0",
        "input": "0x1806f92c000000000000000000000000f39fd6e51aad88f6f4ce6ab8827279cfffb922660000000000000000000000000000000000000000000000000000000000000001c7e473bda59eca1142c4f4668171c63902266a759b99a17e40585c025faad577",
        "nonce": "0x28",
        "chainId": "0x7a69"
      },
      "additionalContracts": [],
      "isFixedGasLimit": false
    },
    {
      "hash": "0x67c47de70960c210f8dc1f47dd848ee790eb5a845b01fbd62dd89ed18e71bc30",
      "transactionType": "CALL",
      "contractName": null,
      "contractAddress": "0xa513e6e4b8f2a923d98304ec87f64353c4d5c853",
      "function": "submitProof((bytes32,bytes,uint256,address))",
      "arguments": [
        "(0x08f4dcc5d0c269deb4ea12692940d089a6fb2cc59d9d5459b4fb5066e092dd0d, 0xc7e473bda59eca1142c4f4668171c63902266a759b99a17e40585c025faad577, 1763975114, 0xf39Fd6e51aad88F6F4ce6aB8827279cffFb92266)"
      ],
      "transaction": {
        "from": "0xf39fd6e51aad88f6f4ce6ab8827279cfffb92266",
        "to": "0xa513e6e4b8f2a923d98304ec87f64353c4d5c853",
        "gas": "0x1336f",
        "value": "0x0",
        "input": "0x61cd93c8000000000000000000000000000000000000000000000000000000000000002008f4dcc5d0c269deb4ea12692940d089a6fb2cc59d9d5459b4fb5066e092dd0d00000000000000000000000000000000000000000000000000000000000000800000000000000000000000000000000000000000000000000000000069241fca000000000000000000000000f39fd6e51aad88f6f4ce6ab8827279cfffb922660000000000000000000000000000000000000000000000000000000000000020c7e473bda59eca1142c4f4668171c63902266a759b99a17e40585c025faad577",
        "nonce": "0x29",
        "chainId": "0x7a69"
      },
      "additionalContracts": [],
      "isFixedGasLimit": false
    }
  ],
  "receipts": [
    {
      "status": "0x1",
      "cumulativeGasUsed": "0x7862",
      "logs": [
        {
          "address": "0x0165878a594ca255338adfa4d48449f69242eb8f",
          "topics": [
            "0x3770c7285d98f320f88c0ad6aa28f3fa77a7a8fbe3099520299db72cb7426002",
            "0x00000000000000000000000070997970c51812dc3a010c7d01b50e0d17dc79c8"
          ],
          "data": "0x0000000000000000000000000000000000000000000000000000000000000001c7e473bda59eca1142c4f4668171c63902266a759b99a17e40585c025faad577",
          "blockHash": "0x8e62b21e036d782793e3c170b15f0712f97233662fc5e8a8e7a07ef4803ecb41",
          "blockNumber": "0x29",
          "blockTimestamp": "0x6924202a",
          "transactionHash": "0x457c05dfc6bca209acfa25330b1b8a4618ed388ac19f3b627c08c7e9ead4da74",
          "transactionIndex": "0x0",
          "logIndex": "0x0",
          "removed": false
        }
      ],
      "logsBloom": "0x00000000000000000002000000000000000000000000000000000000000000000000000000000000000000000000000000000000000000000000000000000000001000000000000000000000000000000000000000000000000000000000000000000800000000000000000000000000000000000000000000000000000000040000000000000000000000000000000000000000000000000000000000000000000000000000000200000000000000000000000000000000000000000000000000000004000000000000000000000000000000000000000000000000000000000000000000000000000000000000000021000000000000000000000000000000",
      "type": "0x2",
      "transactionHash": "0x457c05dfc6bca209acfa25330b1b8a4618ed388ac19f3b627c08c7e9ead4da74",
      "transactionIndex": "0x0",
      "blockHash": "0x8e62b21e036d782793e3c170b15f0712f97233662fc5e8a8e7a07ef4803ecb41",
      "blockNumber": "0x29",
      "gasUsed": "0x7862",
      "effectiveGasPrice": "0x50b258",
      "blobGasPrice": "0x1",
      "from": "0xf39fd6e51aad88f6f4ce6ab8827279cfffb92266",
      "to": "0x0165878a594ca255338adfa4d48449f69242eb8f",
      "contractAddress": null
    },
    {
      "status": "0x1",
      "cumulativeGasUsed": "0x7862",
      "logs": [
        {
          "address": "0x0165878a594ca255338adfa4d48449f69242eb8f",
          "topics": [
            "0x3770c7285d98f320f88c0ad6aa28f3fa77a7a8fbe3099520299db72cb7426002",
            "0x000000000000000000000000f39fd6e51aad88f6f4ce6ab8827279cfffb92266"
          ],
          "data": "0x0000000000000000000000000000000000000000000000000000000000000001c7e473bda59eca1142c4f4668171c63902266a759b99a17e40585c025faad577",
          "blockHash": "0xe5c9c45cd0963269c4e7e4f18727834b45984f113f675f7d82140780c38914d8",
          "blockNumber": "0x2a",
          "blockTimestamp": "0x6924202a",
          "transactionHash": "0x4b0c949d48bcc024fdd2413cb978da00ba5e2761d30cc28d09fc8707666d1565",
          "transactionIndex": "0x0",
          "logIndex": "0x0",
          "removed": false
        }
      ],
      "logsBloom": "0x00000000000000000000000000000000000000000000000000000000000000000000000000000000000000000000000000000000000000000000000000000000001000000000000000000000000000000000000000000000000000000000000000000000000000000000000100000000000000000000000000000000000000040000000000000000000000000000000000000000000000000000000000000000000000000000000200000000000000000000000000000000000000000000000000000004000000200000000000000000000000002000000000000000000000000000000000000000000000000000000020000000000000000000000000000000",
      "type": "0x2",
      "transactionHash": "0x4b0c949d48bcc024fdd2413cb978da00ba5e2761d30cc28d09fc8707666d1565",
      "transactionIndex": "0x0",
      "blockHash": "0xe5c9c45cd0963269c4e7e4f18727834b45984f113f675f7d82140780c38914d8",
      "blockNumber": "0x2a",
      "gasUsed": "0x7862",
      "effectiveGasPrice": "0x46a15c",
      "blobGasPrice": "0x1",
      "from": "0xf39fd6e51aad88f6f4ce6ab8827279cfffb92266",
      "to": "0x0165878a594ca255338adfa4d48449f69242eb8f",
      "contractAddress": null
    },
    {
      "status": "0x1",
      "cumulativeGasUsed": "0xde94",
      "logs": [
        {
          "address": "0xa513e6e4b8f2a923d98304ec87f64353c4d5c853",
          "topics": [
            "0x3cbd2fea20b478de3a1ffaf47011735f993c2c4e13dc9a4f039f3adac8f4892f",
            "0x000000000000000000000000f39fd6e51aad88f6f4ce6ab8827279cfffb92266"
          ],
          "data": "0x08f4dcc5d0c269deb4ea12692940d089a6fb2cc59d9d5459b4fb5066e092dd0dc7e473bda59eca1142c4f4668171c63902266a759b99a17e40585c025faad577",
          "blockHash": "0xa1752e8089dbdd8e4a461aec55505fad74d0580b543e6f91dc72652b80dea5cf",
          "blockNumber": "0x2b",
          "blockTimestamp": "0x6924202a",
          "transactionHash": "0x67c47de70960c210f8dc1f47dd848ee790eb5a845b01fbd62dd89ed18e71bc30",
          "transactionIndex": "0x0",
          "logIndex": "0x0",
          "removed": false
        }
      ],
      "logsBloom": "0x00000000000000000000000000000000000000000000000000000000000000010000000000000000001000000000000000000000000000000000000000000000000000000000000000000000000000000000000010000000010000000000000000000000000000000000000100000000000000000000000000000000000000000000000000000000000000000000000000000000000000000000000000000000000008000000000000000000000000000000000000000000000000000000000000000000000000200000000000000000000000002000000000000000000000000000000000000000000000000000000000000000004000000000000000000000",
      "type": "0x2",
      "transactionHash": "0x67c47de70960c210f8dc1f47dd848ee790eb5a845b01fbd62dd89ed18e71bc30",
      "transactionIndex": "0x0",
      "blockHash": "0xa1752e8089dbdd8e4a461aec55505fad74d0580b543e6f91dc72652b80dea5cf",
      "blockNumber": "0x2b",
      "gasUsed": "0xde94",
      "effectiveGasPrice": "0x3dd1d6",
      "blobGasPrice": "0x1",
      "from": "0xf39fd6e51aad88f6f4ce6ab8827279cfffb92266",
      "to": "0xa513e6e4b8f2a923d98304ec87f64353c4d5c853",
      "contractAddress": null
    }
  ],
  "libraries": [],
  "pending": [],
  "returns": {},
  "timestamp": 1763975210885,
  "chain": 31337,
  "commit": "a11471f"
}