{
  "transactions": [
    {
      "hash": "0xe499869b35e366fb2f0ea41dd1e5f70a6ef5c972159c1fbe0368b263237b6cb6",
      "transactionType": "CALL",
      "contractName": null,
      "contractAddress": "0x0165878a594ca255338adfa4d48449f69242eb8f",
      "function": "setUserCompliance(address,bool,bytes32)",
      "arguments": [
        "0x70997970C51812dc3A010C7d01b50e0d17dc79C8",
        "true",
        "0xc7e473bda59eca1142c4f4668171c63902266a759b99a17e40585c025faad577"
      ],
      "transaction": {
        "from": "0xf39fd6e51aad88f6f4ce6ab8827279cfffb92266",
        "to": "0x0165878a594ca255338adfa4d48449f69242eb8f",
        "gas": "0xb00f",
        "value": "0x0",
        "input": "0x1806f92c00000000000000000000000070997970c51812dc3a010c7d01b50e0d17dc79c80000000000000000000000000000000000000000000000000000000000000001c7e473bda59eca1142c4f4668171c63902266a759b99a17e40585c025faad577",
        "nonce": "0x24",
        "chainId": "0x7a69"
      },
      "additionalContracts": [],
      "isFixedGasLimit": false
    },
    {
      "hash": "0x5715459266ad747b37f2e2eed7eef81c7a8146a9c88bc3472190137298ab9c0b",
      "transactionType": "CALL",
      "contractName": null,
      "contractAddress": "0x0165878a594ca255338adfa4d48449f69242eb8f",
      "function": "setUserCompliance(address,bool,bytes32)",
      "arguments": [
        "0xf39Fd6e51aad88F6F4ce6aB8827279cffFb92266",
        "true",
        "0xc7e473bda59eca1142c4f4668171c63902266a759b99a17e40585c025faad577"
      ],
      "transaction": {
        "from": "0xf39fd6e51aad88f6f4ce6ab8827279cfffb92266",
        "to": "0x0165878a594ca255338adfa4d48449f69242eb8f",
        "gas": "0xb00f",
        "value": "0x0",
        "input": "0x1806f92c000000000000000000000000f39fd6e51aad88f6f4ce6ab8827279cfffb922660000000000000000000000000000000000000000000000000000000000000001c7e473bda59eca1142c4f4668171c63902266a759b99a17e40585c025faad577",
        "nonce": "0x25",
        "chainId": "0x7a69"
      },
      "additionalContracts": [],
      "isFixedGasLimit": false
    },
    {
      "hash": "0xf814c17d5d33c0cc263bb4af41d17fad015951d6c1ad05e039c36026d850bc8d",
      "transactionType": "CALL",
      "contractName": null,
      "contractAddress": "0xa513e6e4b8f2a923d98304ec87f64353c4d5c853",
      "function": "submitProof((bytes32,bytes,uint256,address))",
      "arguments": [
        "(0x6d4ae5f30da527d38c08467a9625c5551b39ef75841b592f397690ce22aa8da1, 0xc7e473bda59eca1142c4f4668171c63902266a759b99a17e40585c025faad577, 1763974931, 0xf39Fd6e51aad88F6F4ce6aB8827279cffFb92266)"
      ],
      "transaction": {
        "from": "0xf39fd6e51aad88f6f4ce6ab8827279cfffb92266",
        "to": "0xa513e6e4b8f2a923d98304ec87f64353c4d5c853",
        "gas": "0x1336f",
        "value": "0x0",
        "input": "0x61cd93c800000000000000000000000000000000000000000000000000000000000000206d4ae5f30da527d38c08467a9625c5551b39ef75841b592f397690ce22aa8da100000000000000000000000000000000000000000000000000000000000000800000000000000000000000000000000000000000000000000000000069241f13000000000000000000000000f39fd6e51aad88f6f4ce6ab8827279cfffb922660000000000000000000000000000000000000000000000000000000000000020c7e473bda59eca1142c4f4668171c63902266a759b99a17e40585c025faad577",
        "nonce": "0x26",
        "chainId": "0x7a69"
      },
      "additionalContracts": [],
      "isFixedGasLimit": false
    }
  ],
  "receipts": [
    {
      "status": "0x1",
      "cumulativeGasUsed": "0x7862",
      "logs": [
        {
          "address": "0x0165878a594ca255338adfa4d48449f69242eb8f",
          "topics": [
            "0x3770c7285d98f320f88c0ad6aa28f3fa77a7a8fbe3099520299db72cb7426002",
            "0x00000000000000000000000070997970c51812dc3a010c7d01b50e0d17dc79c8"
          ],
          "data": "0x0000000000000000000000000000000000000000000000000000000000000001c7e473bda59eca1142c4f4668171c63902266a759b99a17e40585c025faad577",
          "blockHash": "0x6c6743ed6d60d1f2745480a576f84a005bc8d8e2bb6b06209123c0933b2a00ba",
          "blockNumber": "0x26",
          "blockTimestamp": "0x69241fca",
          "transactionHash": "0xe499869b35e366fb2f0ea41dd1e5f70a6ef5c972159c1fbe0368b263237b6cb6",
          "transactionIndex": "0x0",
          "logIndex": "0x0",
          "removed": false
        }
      ],
      "logsBloom": "0x00000000000000000002000000000000000000000000000000000000000000000000000000000000000000000000000000000000000000000000000000000000001000000000000000000000000000000000000000000000000000000000000000000800000000000000000000000000000000000000000000000000000000040000000000000000000000000000000000000000000000000000000000000000000000000000000200000000000000000000000000000000000000000000000000000004000000000000000000000000000000000000000000000000000000000000000000000000000000000000000021000000000000000000000000000000",
      "type": "0x2",
      "transactionHash": "0xe499869b35e366fb2f0ea41dd1e5f70a6ef5c972159c1fbe0368b263237b6cb6",
      "transactionIndex": "0x0",
      "blockHash": "0x6c6743ed6d60d1f2745480a576f84a005bc8d8e2bb6b06209123c0933b2a00ba",
      "blockNumber": "0x26",
      "gasUsed": "0x7862",
      "effectiveGasPrice": "0x785220",
      "blobGasPrice": "0x1",
      "from": "0xf39fd6e51aad88f6f4ce6ab8827279cfffb92266",
      "to": "0x0165878a594ca255338adfa4d48449f69242eb8f",
      "contractAddress": null
    },
    {
      "status": "0x1",
      "cumulativeGasUsed": "0x7862",
      "logs": [
        {
          "address": "0x0165878a594ca255338adfa4d48449f69242eb8f",
          "topics": [
            "0x3770c7285d98f320f88c0ad6aa28f3fa77a7a8fbe3099520299db72cb7426002",
            "0x000000000000000000000000f39fd6e51aad88f6f4ce6ab8827279cfffb92266"
          ],
          "data": "0x0000000000000000000000000000000000000000000000000000000000000001c7e473bda59eca1142c4f4668171c63902266a759b99a17e40585c025faad577",
          "blockHash": "0x5c8ad82ad785bc00006eb81b8e786cc9c3c73b262abf146a47ae94455e380b9e",
          "blockNumber": "0x27",
          "blockTimestamp": "0x69241fca",
          "transactionHash": "0x5715459266ad747b37f2e2eed7eef81c7a8146a9c88bc3472190137298ab9c0b",
          "transactionIndex": "0x0",
          "logIndex": "0x0",
          "removed": false
        }
      ],
      "logsBloom": "0x00000000000000000000000000000000000000000000000000000000000000000000000000000000000000000000000000000000000000000000000000000000001000000000000000000000000000000000000000000000000000000000000000000000000000000000000100000000000000000000000000000000000000040000000000000000000000000000000000000000000000000000000000000000000000000000000200000000000000000000000000000000000000000000000000000004000000200000000000000000000000002000000000000000000000000000000000000000000000000000000020000000000000000000000000000000",
      "type": "0x2",
      "transactionHash": "0x5715459266ad747b37f2e2eed7eef81c7a8146a9c88bc3472190137298ab9c0b",
      "transactionIndex": "0x0",
      "blockHash": "0x5c8ad82ad785bc00006eb81b8e786cc9c3c73b262abf146a47ae94455e380b9e",
      "blockNumber": "0x27",
      "gasUsed": "0x7862",
      "effectiveGasPrice": "0x694fc6",
      "blobGasPrice": "0x1",
      "from": "0xf39fd6e51aad88f6f4ce6ab8827279cfffb92266",
      "to": "0x0165878a594ca255338adfa4d48449f69242eb8f",
      "contractAddress": null
    },
    {
      "status": "0x1",
      "cumulativeGasUsed": "0xde94",
      "logs": [
        {
          "address": "0xa513e6e4b8f2a923d98304ec87f64353c4d5c853",
          "topics": [
            "0x3cbd2fea20b478de3a1ffaf47011735f993c2c4e13dc9a4f039f3adac8f4892f",
            "0x000000000000000000000000f39fd6e51aad88f6f4ce6ab8827279cfffb92266"
          ],
          "data": "0x6d4ae5f30da527d38c08467a9625c5551b39ef75841b592f397690ce22aa8da1c7e473bda59eca1142c4f4668171c63902266a759b99a17e40585c025faad577",
          "blockHash": "0x6f93facae261dbae59e6315afba1ef6d43f52f4689217f958b0c23112c3525d7",
          "blockNumber": "0x28",
          "blockTimestamp": "0x69241fca",
          "transactionHash": "0xf814c17d5d33c0cc263bb4af41d17fad015951d6c1ad05e039c36026d850bc8d",
          "transactionIndex": "0x0",
          "logIndex": "0x0",
          "removed": false
        }
      ],
      "logsBloom": "0x00000000000000000000000000000000000000000000000000000000000000010000000000000000001000000000000000000000000000000000000000000000000000000000000000000000000000000000000010000000010000000000000000000000000000000000000100000000000000000000000000000000000000000000000000000000000000000000000000000000000000000000000000000000000008000000000000000000000000000000000000000000000000000000000000000000000000200000000000000000000000002000000000000000000000000000000000000000000000000000000000000000004000000000000000000000",
      "type": "0x2",
      "transactionHash": "0xf814c17d5d33c0cc263bb4af41d17fad015951d6c1ad05e039c36026d850bc8d",
      "transactionIndex": "0x0",
      "blockHash": "0x6f93facae261dbae59e6315afba1ef6d43f52f4689217f958b0c23112c3525d7",
      "blockNumber": "0x28",
      "gasUsed": "0xde94",
      "effectiveGasPrice": "0x5c2cba",
      "blobGasPrice": "0x1",
      "from": "0xf39fd6e51aad88f6f4ce6ab8827279cfffb92266",
      "to": "0xa513e6e4b8f2a923d98304ec87f64353c4d5c853",
      "contractAddress": null
    }
  ],
  "libraries": [],
  "pending": [],
  "returns": {},
  "timestamp": 1763975114242,
  "chain": 31337,
  "commit": "a11471f"
}