{
  "transactions": [
    {
      "hash": "0x452d49e7830cdac91c93d622e892edda65d9e92981766f074c64ed9efdd5be0b",
      "transactionType": "CALL",
      "contractName": null,
      "contractAddress": "0xc5a5c42992decbae36851359345fe25997f5c42d",
      "function": "setUserCompliance(address,bool,bytes32)",
      "arguments": [
        "0x70997970C51812dc3A010C7d01b50e0d17dc79C8",
        "true",
        "0xc7e473bda59eca1142c4f4668171c63902266a759b99a17e40585c025faad577"
      ],
      "transaction": {
        "from": "0xf39fd6e51aad88f6f4ce6ab8827279cfffb92266",
        "to": "0xc5a5c42992decbae36851359345fe25997f5c42d",
        "gas": "0x1936e",
        "value": "0x0",
        "input": "0x1806f92c00000000000000000000000070997970c51812dc3a010c7d01b50e0d17dc79c80000000000000000000000000000000000000000000000000000000000000001c7e473bda59eca1142c4f4668171c63902266a759b99a17e40585c025faad577",
        "nonce": "0x2a",
        "chainId": "0x7a69"
      },
      "additionalContracts": [],
      "isFixedGasLimit": false
    },
    {
      "hash": "0x8f36dbe100f6af5301fcab59435d730699710bffade98fbeb839164626238d4e",
      "transactionType": "CALL",
      "contractName": null,
      "contractAddress": "0xc5a5c42992decbae36851359345fe25997f5c42d",
      "function": "setUserCompliance(address,bool,bytes32)",
      "arguments": [
        "0xf39Fd6e51aad88F6F4ce6aB8827279cffFb92266",
        "true",
        "0xc7e473bda59eca1142c4f4668171c63902266a759b99a17e40585c025faad577"
      ],
      "transaction": {
        "from": "0xf39fd6e51aad88f6f4ce6ab8827279cfffb92266",
        "to": "0xc5a5c42992decbae36851359345fe25997f5c42d",
        "gas": "0x1936e",
        "value": "0x0",
        "input": "0x1806f92c000000000000000000000000f39fd6e51aad88f6f4ce6ab8827279cfffb922660000000000000000000000000000000000000000000000000000000000000001c7e473bda59eca1142c4f4668171c63902266a759b99a17e40585c025faad577",
        "nonce": "0x2b",
        "chainId": "0x7a69"
      },
      "additionalContracts": [],
      "isFixedGasLimit": false
    },
    {
      "hash": "0xbd22a7921305e370ee7a88fe5feb89dbe0ffc69d0873322d60d35cdafb93b80a",
      "transactionType": "CALL",
      "contractName": null,
      "contractAddress": "0x67d269191c92caf3cd7723f116c85e6e9bf55933",
      "function": "submitProof((bytes32,bytes,uint256,address))",
      "arguments": [
        "(0xc7e6b56de3b5bd17433510d7bde479f5f9e72a241f2118e50271d1ec10c6573f, 0xc7e473bda59eca1142c4f4668171c63902266a759b99a17e40585c025faad577, 1763975210, 0xf39Fd6e51aad88F6F4ce6aB8827279cffFb92266)"
      ],
      "transaction": {
        "from": "0xf39fd6e51aad88f6f4ce6ab8827279cfffb92266",
        "to": "0x67d269191c92caf3cd7723f116c85e6e9bf55933",
        "gas": "0x19ece",
        "value": "0x0",
        "input": "0x61cd93c80000000000000000000000000000000000000000000000000000000000000020c7e6b56de3b5bd17433510d7bde479f5f9e72a241f2118e50271d1ec10c6573f0000000000000000000000000000000000000000000000000000000000000080000000000000000000000000000000000000000000000000000000006924202a000000000000000000000000f39fd6e51aad88f6f4ce6ab8827279cfffb922660000000000000000000000000000000000000000000000000000000000000020c7e473bda59eca1142c4f4668171c63902266a759b99a17e40585c025faad577",
        "nonce": "0x2c",
        "chainId": "0x7a69"
      },
      "additionalContracts": [],
      "isFixedGasLimit": false
    }
  ],
  "receipts": [
    {
      "status": "0x1",
      "cumulativeGasUsed": "0x113da",
      "logs": [
        {
          "address": "0xc5a5c42992decbae36851359345fe25997f5c42d",
          "topics": [
            "0x3770c7285d98f320f88c0ad6aa28f3fa77a7a8fbe3099520299db72cb7426002",
            "0x00000000000000000000000070997970c51812dc3a010c7d01b50e0d17dc79c8"
          ],
          "data": "0x0000000000000000000000000000000000000000000000000000000000000001c7e473bda59eca1142c4f4668171c63902266a759b99a17e40585c025faad577",
          "blockHash": "0xd5cbaa084220e74e3970f9c30151d814ea8f2f568f38b20586382006b6f1b52c",
          "blockNumber": "0x2c",
          "blockTimestamp": "0x69242669",
          "transactionHash": "0x452d49e7830cdac91c93d622e892edda65d9e92981766f074c64ed9efdd5be0b",
          "transactionIndex": "0x0",
          "logIndex": "0x0",
          "removed": false
        }
      ],
      "logsBloom": "0x00000000000000000002000000000000000004000000000000000000000000000000000000000000000000000000000000000000000000000004000000000000000000000000000000000000000000000000000000000000000000000000000000000800000000000000000000000000000000000000000000000000000000040000000000000000000000000000000000000000000000000000000000000000000000000000000200000000000000000000000000000000000000000000000000000000080000000000000000000000000000000000000000000000000000000000000000000000000000000000000021000000000000000000000000000000",
      "type": "0x2",
      "transactionHash": "0x452d49e7830cdac91c93d622e892edda65d9e92981766f074c64ed9efdd5be0b",
      "transactionIndex": "0x0",
      "blockHash": "0xd5cbaa084220e74e3970f9c30151d814ea8f2f568f38b20586382006b6f1b52c",
      "blockNumber": "0x2c",
      "gasUsed": "0x113da",
      "effectiveGasPrice": "0x361f20",
      "blobGasPrice": "0x1",
      "from": "0xf39fd6e51aad88f6f4ce6ab8827279cfffb92266",
      "to": "0xc5a5c42992decbae36851359345fe25997f5c42d",
      "contractAddress": null
    },
    {
      "status": "0x1",
      "cumulativeGasUsed": "0x113da",
      "logs": [
        {
          "address": "0xc5a5c42992decbae36851359345fe25997f5c42d",
          "topics": [
            "0x3770c7285d98f320f88c0ad6aa28f3fa77a7a8fbe3099520299db72cb7426002",
            "0x000000000000000000000000f39fd6e51aad88f6f4ce6ab8827279cfffb92266"
          ],
          "data": "0x0000000000000000000000000000000000000000000000000000000000000001c7e473bda59eca1142c4f4668171c63902266a759b99a17e40585c025faad577",
          "blockHash": "0xd355c2f266b1fe44afb48a1e2491c15b538f7fab24789b2ca66ba6e1fb8d29ad",
          "blockNumber": "0x2d",
          "blockTimestamp": "0x69242669",
          "transactionHash": "0x8f36dbe100f6af5301fcab59435d730699710bffade98fbeb839164626238d4e",
          "transactionIndex": "0x0",
          "logIndex": "0x0",
          "removed": false
        }
      ],
      "logsBloom": "0x00000000000000000000000000000000000004000000000000000000000000000000000000000000000000000000000000000000000000000004000000000000000000000000000000000000000000000000000000000000000000000000000000000000000000000000000100000000000000000000000000000000000000040000000000000000000000000000000000000000000000000000000000000000000000000000000200000000000000000000000000000000000000000000000000000000080000200000000000000000000000002000000000000000000000000000000000000000000000000000000020000000000000000000000000000000",
      "type": "0x2",
      "transactionHash": "0x8f36dbe100f6af5301fcab59435d730699710bffade98fbeb839164626238d4e",
      "transactionIndex": "0x0",
      "blockHash": "0xd355c2f266b1fe44afb48a1e2491c15b538f7fab24789b2ca66ba6e1fb8d29ad",
      "blockNumber": "0x2d",
      "gasUsed": "0x113da",
      "effectiveGasPrice": "0x2f6364",
      "blobGasPrice": "0x1",
      "from": "0xf39fd6e51aad88f6f4ce6ab8827279cfffb92266",
      "to": "0xc5a5c42992decbae36851359345fe25997f5c42d",
      "contractAddress": null
    },
    {
      "status": "0x1",
      "cumulativeGasUsed": "0x12c50",
      "logs": [
        {
          "address": "0x67d269191c92caf3cd7723f116c85e6e9bf55933",
          "topics": [
            "0x3cbd2fea20b478de3a1ffaf47011735f993c2c4e13dc9a4f039f3adac8f4892f",
            "0x000000000000000000000000f39fd6e51aad88f6f4ce6ab8827279cfffb92266"
          ],
          "data": "0xc7e6b56de3b5bd17433510d7bde479f5f9e72a241f2118e50271d1ec10c6573fc7e473bda59eca1142c4f4668171c63902266a759b99a17e40585c025faad577",
          "blockHash": "0x6ccbf4a284487bd225329e5f7e98d27f464054f2585e516c6c95354b584af89a",
          "blockNumber": "0x2e",
          "blockTimestamp": "0x69242669",
          "transactionHash": "0xbd22a7921305e370ee7a88fe5feb89dbe0ffc69d0873322d60d35cdafb93b80a",
          "transactionIndex": "0x0",
          "logIndex": "0x0",
          "removed": false
        }
      ],
      "logsBloom": "0x00000000000000000000000000000000000000000000000000000000000000000000000000000000001000000000000000000000000000000000000000000000000000000000000200000000000000000000000000000000000000000000000000000000000000000000000100000000000000000000000000000000000000100000000000000000000000000000000000000000000000000000000000000000000008000000000000000000000000000000000000000000000000000000000000000000000000200000000000000000000000002000000000000000000000000000000000000000000000000000000000000000004000004000000000000000",
      "type": "0x2",
      "transactionHash": "0xbd22a7921305e370ee7a88fe5feb89dbe0ffc69d0873322d60d35cdafb93b80a",
      "transactionIndex": "0x0",
      "blockHash": "0x6ccbf4a284487bd225329e5f7e98d27f464054f2585e516c6c95354b584af89a",
      "blockNumber": "0x2e",
      "gasUsed": "0x12c50",
      "effectiveGasPrice": "0x297e1c",
      "blobGasPrice": "0x1",
      "from": "0xf39fd6e51aad88f6f4ce6ab8827279cfffb92266",
      "to": "0x67d269191c92caf3cd7723f116c85e6e9bf55933",
      "contractAddress": null
    }
  ],
  "libraries": [],
  "pending": [],
  "returns": {},
  "timestamp": 1763976809366,
  "chain": 31337,
  "commit": "a11471f"
}