{
  "transactions": [
    {
      "hash": "0x99efbef3bb5009e3e177ee800a59058821b50f0e043d970c55e20eba3a0aad12",
      "transactionType": "CALL",
      "contractName": null,
      "contractAddress": "0x0165878a594ca255338adfa4d48449f69242eb8f",
      "function": "setUserCompliance(address,bool,bytes32)",
      "arguments": [
        "0x70997970C51812dc3A010C7d01b50e0d17dc79C8",
        "true",
        "0xc7e473bda59eca1142c4f4668171c63902266a759b99a17e40585c025faad577"
      ],
      "transaction": {
        "from": "0xf39fd6e51aad88f6f4ce6ab8827279cfffb92266",
        "to": "0x0165878a594ca255338adfa4d48449f69242eb8f",
        "gas": "0x1936e",
        "value": "0x0",
        "input": "0x1806f92c00000000000000000000000070997970c51812dc3a010c7d01b50e0d17dc79c80000000000000000000000000000000000000000000000000000000000000001c7e473bda59eca1142c4f4668171c63902266a759b99a17e40585c025faad577",
        "nonce": "0xd",
        "chainId": "0x7a69"
      },
      "additionalContracts": [],
      "isFixedGasLimit": false
    },
    {
      "hash": "0x01e430cd4d78b11be2f7045688f36de66919841a7ff121fc77979d258eefb3a8",
      "transactionType": "CALL",
      "contractName": null,
      "contractAddress": "0x0165878a594ca255338adfa4d48449f69242eb8f",
      "function": "setUserCompliance(address,bool,bytes32)",
      "arguments": [
        "0xf39Fd6e51aad88F6F4ce6aB8827279cffFb92266",
        "true",
        "0xc7e473bda59eca1142c4f4668171c63902266a759b99a17e40585c025faad577"
      ],
      "transaction": {
        "from": "0xf39fd6e51aad88f6f4ce6ab8827279cfffb92266",
        "to": "0x0165878a594ca255338adfa4d48449f69242eb8f",
        "gas": "0xb00f",
        "value": "0x0",
        "input": "0x1806f92c000000000000000000000000f39fd6e51aad88f6f4ce6ab8827279cfffb922660000000000000000000000000000000000000000000000000000000000000001c7e473bda59eca1142c4f4668171c63902266a759b99a17e40585c025faad577",
        "nonce": "0xe",
        "chainId": "0x7a69"
      },
      "additionalContracts": [],
      "isFixedGasLimit": false
    },
    {
      "hash": "0xeea73a1ac4053e6e74f75fd2717242ebf7b461e6e58d9066f8c341d9c55a7909",
      "transactionType": "CALL",
      "contractName": null,
      "contractAddress": "0xa513e6e4b8f2a923d98304ec87f64353c4d5c853",
      "function": "submitProof((bytes32,bytes,uint256,address))",
      "arguments": [
        "(0x47790850699cbd4718ea1eced9371e3c4ee988a29713fe8d4f9cdaf96068216c, 0xc7e473bda59eca1142c4f4668171c63902266a759b99a17e40585c025faad577, 1763966228, 0xf39Fd6e51aad88F6F4ce6aB8827279cffFb92266)"
      ],
      "transaction": {
        "from": "0xf39fd6e51aad88f6f4ce6ab8827279cfffb92266",
        "to": "0xa513e6e4b8f2a923d98304ec87f64353c4d5c853",
        "gas": "0x1336f",
        "value": "0x0",
        "input": "0x61cd93c8000000000000000000000000000000000000000000000000000000000000002047790850699cbd4718ea1eced9371e3c4ee988a29713fe8d4f9cdaf96068216c0000000000000000000000000000000000000000000000000000000000000080000000000000000000000000000000000000000000000000000000006923fd14000000000000000000000000f39fd6e51aad88f6f4ce6ab8827279cfffb922660000000000000000000000000000000000000000000000000000000000000020c7e473bda59eca1142c4f4668171c63902266a759b99a17e40585c025faad577",
        "nonce": "0xf",
        "chainId": "0x7a69"
      },
      "additionalContracts": [],
      "isFixedGasLimit": false
    }
  ],
  "receipts": [
    {
      "status": "0x1",
      "cumulativeGasUsed": "0x113da",
      "logs": [
        {
          "address": "0x0165878a594ca255338adfa4d48449f69242eb8f",
          "topics": [
            "0x3770c7285d98f320f88c0ad6aa28f3fa77a7a8fbe3099520299db72cb7426002",
            "0x00000000000000000000000070997970c51812dc3a010c7d01b50e0d17dc79c8"
          ],
          "data": "0x0000000000000000000000000000000000000000000000000000000000000001c7e473bda59eca1142c4f4668171c63902266a759b99a17e40585c025faad577",
          "blockHash": "0x7c7ba48dc759d3a2ae109d557de2ffdaa673eaba4baf622b4179f68fbbe4b46f",
          "blockNumber": "0xe",
          "blockTimestamp": "0x6923fd24",
          "transactionHash": "0x99efbef3bb5009e3e177ee800a59058821b50f0e043d970c55e20eba3a0aad12",
          "transactionIndex": "0x0",
          "logIndex": "0x0",
          "removed": false
        }
      ],
      "logsBloom": "0x00000000000000000002000000000000000000000000000000000000000000000000000000000000000000000000000000000000000000000000000000000000001000000000000000000000000000000000000000000000000000000000000000000800000000000000000000000000000000000000000000000000000000040000000000000000000000000000000000000000000000000000000000000000000000000000000200000000000000000000000000000000000000000000000000000004000000000000000000000000000000000000000000000000000000000000000000000000000000000000000021000000000000000000000000000000",
      "type": "0x2",
      "transactionHash": "0x99efbef3bb5009e3e177ee800a59058821b50f0e043d970c55e20eba3a0aad12",
      "transactionIndex": "0x0",
      "blockHash": "0x7c7ba48dc759d3a2ae109d557de2ffdaa673eaba4baf622b4179f68fbbe4b46f",
      "blockNumber": "0xe",
      "gasUsed": "0x113da",
      "effectiveGasPrice": "0xb0c7c3e",
      "blobGasPrice": "0x1",
      "from": "0xf39fd6e51aad88f6f4ce6ab8827279cfffb92266",
      "to": "0x0165878a594ca255338adfa4d48449f69242eb8f",
      "contractAddress": null
    },
    {
      "status": "0x1",
      "cumulativeGasUsed": "0x7862",
      "logs": [
        {
          "address": "0x0165878a594ca255338adfa4d48449f69242eb8f",
          "topics": [
            "0x3770c7285d98f320f88c0ad6aa28f3fa77a7a8fbe3099520299db72cb7426002",
            "0x000000000000000000000000f39fd6e51aad88f6f4ce6ab8827279cfffb92266"
          ],
          "data": "0x0000000000000000000000000000000000000000000000000000000000000001c7e473bda59eca1142c4f4668171c63902266a759b99a17e40585c025faad577",
          "blockHash": "0x1c322b8ec830d87e7da333d176a9c749a84793427b0339597159873c2a11c2eb",
          "blockNumber": "0xf",
          "blockTimestamp": "0x6923fd24",
          "transactionHash": "0x01e430cd4d78b11be2f7045688f36de66919841a7ff121fc77979d258eefb3a8",
          "transactionIndex": "0x0",
          "logIndex": "0x0",
          "removed": false
        }
      ],
      "logsBloom": "0x00000000000000000000000000000000000000000000000000000000000000000000000000000000000000000000000000000000000000000000000000000000001000000000000000000000000000000000000000000000000000000000000000000000000000000000000100000000000000000000000000000000000000040000000000000000000000000000000000000000000000000000000000000000000000000000000200000000000000000000000000000000000000000000000000000004000000200000000000000000000000002000000000000000000000000000000000000000000000000000000020000000000000000000000000000000",
      "type": "0x2",
      "transactionHash": "0x01e430cd4d78b11be2f7045688f36de66919841a7ff121fc77979d258eefb3a8",
      "transactionIndex": "0x0",
      "blockHash": "0x1c322b8ec830d87e7da333d176a9c749a84793427b0339597159873c2a11c2eb",
      "blockNumber": "0xf",
      "gasUsed": "0x7862",
      "effectiveGasPrice": "0x9ac96d5",
      "blobGasPrice": "0x1",
      "from": "0xf39fd6e51aad88f6f4ce6ab8827279cfffb92266",
      "to": "0x0165878a594ca255338adfa4d48449f69242eb8f",
      "contractAddress": null
    },
    {
      "status": "0x1",
      "cumulativeGasUsed": "0xde94",
      "logs": [
        {
          "address": "0xa513e6e4b8f2a923d98304ec87f64353c4d5c853",
          "topics": [
            "0x3cbd2fea20b478de3a1ffaf47011735f993c2c4e13dc9a4f039f3adac8f4892f",
            "0x000000000000000000000000f39fd6e51aad88f6f4ce6ab8827279cfffb92266"
          ],
          "data": "0x47790850699cbd4718ea1eced9371e3c4ee988a29713fe8d4f9cdaf96068216cc7e473bda59eca1142c4f4668171c63902266a759b99a17e40585c025faad577",
          "blockHash": "0xdc67e5866db7bfafb79b9e6781d4e04eea4d487f092b0a66abe3e1d4e140fc85",
          "blockNumber": "0x10",
          "blockTimestamp": "0x6923fd24",
          "transactionHash": "0xeea73a1ac4053e6e74f75fd2717242ebf7b461e6e58d9066f8c341d9c55a7909",
          "transactionIndex": "0x0",
          "logIndex": "0x0",
          "removed": false
        }
      ],
      "logsBloom": "0x00000000000000000000000000000000000000000000000000000000000000010000000000000000001000000000000000000000000000000000000000000000000000000000000000000000000000000000000010000000010000000000000000000000000000000000000100000000000000000000000000000000000000000000000000000000000000000000000000000000000000000000000000000000000008000000000000000000000000000000000000000000000000000000000000000000000000200000000000000000000000002000000000000000000000000000000000000000000000000000000000000000004000000000000000000000",
      "type": "0x2",
      "transactionHash": "0xeea73a1ac4053e6e74f75fd2717242ebf7b461e6e58d9066f8c341d9c55a7909",
      "transactionIndex": "0x0",
      "blockHash": "0xdc67e5866db7bfafb79b9e6781d4e04eea4d487f092b0a66abe3e1d4e140fc85",
      "blockNumber": "0x10",
      "gasUsed": "0xde94",
      "effectiveGasPrice": "0x877a6ce",
      "blobGasPrice": "0x1",
      "from": "0xf39fd6e51aad88f6f4ce6ab8827279cfffb92266",
      "to": "0xa513e6e4b8f2a923d98304ec87f64353c4d5c853",
      "contractAddress": null
    }
  ],
  "libraries": [],
  "pending": [],
  "returns": {},
  "timestamp": 1763966244161,
  "chain": 31337,
  "commit": "fd61488"
}