{
  "transactions": [
    {
      "hash": "0x2bc0dbfe4beaf35eab98bc9f43780aa1c77dd6accdd0d491a2c9855b6cdaf10b",
      "transactionType": "CALL",
      "contractName": null,
      "contractAddress": "0x0165878a594ca255338adfa4d48449f69242eb8f",
      "function": "setUserCompliance(address,bool,bytes32)",
      "arguments": [
        "0x70997970C51812dc3A010C7d01b50e0d17dc79C8",
        "true",
        "0xc7e473bda59eca1142c4f4668171c63902266a759b99a17e40585c025faad577"
      ],
      "transaction": {
        "from": "0xf39fd6e51aad88f6f4ce6ab8827279cfffb92266",
        "to": "0x0165878a594ca255338adfa4d48449f69242eb8f",
        "gas": "0xb00f",
        "value": "0x0",
        "input": "0x1806f92c00000000000000000000000070997970c51812dc3a010c7d01b50e0d17dc79c80000000000000000000000000000000000000000000000000000000000000001c7e473bda59eca1142c4f4668171c63902266a759b99a17e40585c025faad577",
        "nonce": "0x17",
        "chainId": "0x7a69"
      },
      "additionalContracts": [],
      "isFixedGasLimit": false
    },
    {
      "hash": "0xb4e22b3fb030ae4bfcd375a5477afb1564219b357ba4e6631ec45cfa28b3513a",
      "transactionType": "CALL",
      "contractName": null,
      "contractAddress": "0x0165878a594ca255338adfa4d48449f69242eb8f",
      "function": "setUserCompliance(address,bool,bytes32)",
      "arguments": [
        "0xf39Fd6e51aad88F6F4ce6aB8827279cffFb92266",
        "true",
        "0xc7e473bda59eca1142c4f4668171c63902266a759b99a17e40585c025faad577"
      ],
      "transaction": {
        "from": "0xf39fd6e51aad88f6f4ce6ab8827279cfffb92266",
        "to": "0x0165878a594ca255338adfa4d48449f69242eb8f",
        "gas": "0xb00f",
        "value": "0x0",
        "input": "0x1806f92c000000000000000000000000f39fd6e51aad88f6f4ce6ab8827279cfffb922660000000000000000000000000000000000000000000000000000000000000001c7e473bda59eca1142c4f4668171c63902266a759b99a17e40585c025faad577",
        "nonce": "0x18",
        "chainId": "0x7a69"
      },
      "additionalContracts": [],
      "isFixedGasLimit": false
    },
    {
      "hash": "0xe35f56c6eb3d7846cc38b8dc4887cd5fdf0ac8a7a86b6859bb5cb8048b15c2bb",
      "transactionType": "CALL",
      "contractName": null,
      "contractAddress": "0xa513e6e4b8f2a923d98304ec87f64353c4d5c853",
      "function": "submitProof((bytes32,bytes,uint256,address))",
      "arguments": [
        "(0x0a30937efc3fceb9302364f685862c4bb42a158cae75a3aae02ca08a807e5266, 0xc7e473bda59eca1142c4f4668171c63902266a759b99a17e40585c025faad577, 1763966963, 0xf39Fd6e51aad88F6F4ce6aB8827279cffFb92266)"
      ],
      "transaction": {
        "from": "0xf39fd6e51aad88f6f4ce6ab8827279cfffb92266",
        "to": "0xa513e6e4b8f2a923d98304ec87f64353c4d5c853",
        "gas": "0x1336f",
        "value": "0x0",
        "input": "0x61cd93c800000000000000000000000000000000000000000000000000000000000000200a30937efc3fceb9302364f685862c4bb42a158cae75a3aae02ca08a807e52660000000000000000000000000000000000000000000000000000000000000080000000000000000000000000000000000000000000000000000000006923fff3000000000000000000000000f39fd6e51aad88f6f4ce6ab8827279cfffb922660000000000000000000000000000000000000000000000000000000000000020c7e473bda59eca1142c4f4668171c63902266a759b99a17e40585c025faad577",
        "nonce": "0x19",
        "chainId": "0x7a69"
      },
      "additionalContracts": [],
      "isFixedGasLimit": false
    }
  ],
  "receipts": [
    {
      "status": "0x1",
      "cumulativeGasUsed": "0x7862",
      "logs": [
        {
          "address": "0x0165878a594ca255338adfa4d48449f69242eb8f",
          "topics": [
            "0x3770c7285d98f320f88c0ad6aa28f3fa77a7a8fbe3099520299db72cb7426002",
            "0x00000000000000000000000070997970c51812dc3a010c7d01b50e0d17dc79c8"
          ],
          "data": "0x0000000000000000000000000000000000000000000000000000000000000001c7e473bda59eca1142c4f4668171c63902266a759b99a17e40585c025faad577",
          "blockHash": "0x42056db6c4e595de98fce6199786280cf080e9b252f4c4ad7780129820cc92a2",
          "blockNumber": "0x18",
          "blockTimestamp": "0x6924000a",
          "transactionHash": "0x2bc0dbfe4beaf35eab98bc9f43780aa1c77dd6accdd0d491a2c9855b6cdaf10b",
          "transactionIndex": "0x0",
          "logIndex": "0x0",
          "removed": false
        }
      ],
      "logsBloom": "0x00000000000000000002000000000000000000000000000000000000000000000000000000000000000000000000000000000000000000000000000000000000001000000000000000000000000000000000000000000000000000000000000000000800000000000000000000000000000000000000000000000000000000040000000000000000000000000000000000000000000000000000000000000000000000000000000200000000000000000000000000000000000000000000000000000004000000000000000000000000000000000000000000000000000000000000000000000000000000000000000021000000000000000000000000000000",
      "type": "0x2",
      "transactionHash": "0x2bc0dbfe4beaf35eab98bc9f43780aa1c77dd6accdd0d491a2c9855b6cdaf10b",
      "transactionIndex": "0x0",
      "blockHash": "0x42056db6c4e595de98fce6199786280cf080e9b252f4c4ad7780129820cc92a2",
      "blockNumber": "0x18",
      "gasUsed": "0x7862",
      "effectiveGasPrice": "0x2f63306",
      "blobGasPrice": "0x1",
      "from": "0xf39fd6e51aad88f6f4ce6ab8827279cfffb92266",
      "to": "0x0165878a594ca255338adfa4d48449f69242eb8f",
      "contractAddress": null
    },
    {
      "status": "0x1",
      "cumulativeGasUsed": "0x7862",
      "logs": [
        {
          "address": "0x0165878a594ca255338adfa4d48449f69242eb8f",
          "topics": [
            "0x3770c7285d98f320f88c0ad6aa28f3fa77a7a8fbe3099520299db72cb7426002",
            "0x000000000000000000000000f39fd6e51aad88f6f4ce6ab8827279cfffb92266"
          ],
          "data": "0x0000000000000000000000000000000000000000000000000000000000000001c7e473bda59eca1142c4f4668171c63902266a759b99a17e40585c025faad577",
          "blockHash": "0xfc2f4f21c6505b2c8d22332650ad0d2e46a33d5ceac92462d633822fd5a17907",
          "blockNumber": "0x19",
          "blockTimestamp": "0x6924000a",
          "transactionHash": "0xb4e22b3fb030ae4bfcd375a5477afb1564219b357ba4e6631ec45cfa28b3513a",
          "transactionIndex": "0x0",
          "logIndex": "0x0",
          "removed": false
        }
      ],
      "logsBloom": "0x00000000000000000000000000000000000000000000000000000000000000000000000000000000000000000000000000000000000000000000000000000000001000000000000000000000000000000000000000000000000000000000000000000000000000000000000100000000000000000000000000000000000000040000000000000000000000000000000000000000000000000000000000000000000000000000000200000000000000000000000000000000000000000000000000000004000000200000000000000000000000002000000000000000000000000000000000000000000000000000000020000000000000000000000000000000",
      "type": "0x2",
      "transactionHash": "0xb4e22b3fb030ae4bfcd375a5477afb1564219b357ba4e6631ec45cfa28b3513a",
      "transactionIndex": "0x0",
      "blockHash": "0xfc2f4f21c6505b2c8d22332650ad0d2e46a33d5ceac92462d633822fd5a17907",
      "blockNumber": "0x19",
      "gasUsed": "0x7862",
      "effectiveGasPrice": "0x2979e7f",
      "blobGasPrice": "0x1",
      "from": "0xf39fd6e51aad88f6f4ce6ab8827279cfffb92266",
      "to": "0x0165878a594ca255338adfa4d48449f69242eb8f",
      "contractAddress": null
    },
    {
      "status": "0x1",
      "cumulativeGasUsed": "0xde94",
      "logs": [
        {
          "address": "0xa513e6e4b8f2a923d98304ec87f64353c4d5c853",
          "topics": [
            "0x3cbd2fea20b478de3a1ffaf47011735f993c2c4e13dc9a4f039f3adac8f4892f",
            "0x000000000000000000000000f39fd6e51aad88f6f4ce6ab8827279cfffb92266"
          ],
          "data": "0x0a30937efc3fceb9302364f685862c4bb42a158cae75a3aae02ca08a807e5266c7e473bda59eca1142c4f4668171c63902266a759b99a17e40585c025faad577",
          "blockHash": "0xfe50ba19ce7c2e930dcddc5f033309d2f589d9ec5ec6bb78d7602eec0ac9ea9d",
          "blockNumber": "0x1a",
          "blockTimestamp": "0x6924000a",
          "transactionHash": "0xe35f56c6eb3d7846cc38b8dc4887cd5fdf0ac8a7a86b6859bb5cb8048b15c2bb",
          "transactionIndex": "0x0",
          "logIndex": "0x0",
          "removed": false
        }
      ],
      "logsBloom": "0x00000000000000000000000000000000000000000000000000000000000000010000000000000000001000000000000000000000000000000000000000000000000000000000000000000000000000000000000010000000010000000000000000000000000000000000000100000000000000000000000000000000000000000000000000000000000000000000000000000000000000000000000000000000000008000000000000000000000000000000000000000000000000000000000000000000000000200000000000000000000000002000000000000000000000000000000000000000000000000000000000000000004000000000000000000000",
      "type": "0x2",
      "transactionHash": "0xe35f56c6eb3d7846cc38b8dc4887cd5fdf0ac8a7a86b6859bb5cb8048b15c2bb",
      "transactionIndex": "0x0",
      "blockHash": "0xfe50ba19ce7c2e930dcddc5f033309d2f589d9ec5ec6bb78d7602eec0ac9ea9d",
      "blockNumber": "0x1a",
      "gasUsed": "0xde94",
      "effectiveGasPrice": "0x244d651",
      "blobGasPrice": "0x1",
      "from": "0xf39fd6e51aad88f6f4ce6ab8827279cfffb92266",
      "to": "0xa513e6e4b8f2a923d98304ec87f64353c4d5c853",
      "contractAddress": null
    }
  ],
  "libraries": [],
  "pending": [],
  "returns": {},
  "timestamp": 1763966986973,
  "chain": 31337,
  "commit": "d5e8731"
}