{
  "transactions": [
    {
      "hash": "0x3777d5b8086a4b25209f46a93e78357adc102001035a13e4a104e06fca830c0f",
      "transactionType": "CALL",
      "contractName": null,
      "contractAddress": "0x0165878a594ca255338adfa4d48449f69242eb8f",
      "function": "setUserCompliance(address,bool,bytes32)",
      "arguments": [
        "0x70997970C51812dc3A010C7d01b50e0d17dc79C8",
        "true",
        "0xc7e473bda59eca1142c4f4668171c63902266a759b99a17e40585c025faad577"
      ],
      "transaction": {
        "from": "0xf39fd6e51aad88f6f4ce6ab8827279cfffb92266",
        "to": "0x0165878a594ca255338adfa4d48449f69242eb8f",
        "gas": "0xb00f",
        "value": "0x0",
        "input": "0x1806f92c00000000000000000000000070997970c51812dc3a010c7d01b50e0d17dc79c80000000000000000000000000000000000000000000000000000000000000001c7e473bda59eca1142c4f4668171c63902266a759b99a17e40585c025faad577",
        "nonce": "0x12",
        "chainId": "0x7a69"
      },
      "additionalContracts": [],
      "isFixedGasLimit": false
    },
    {
      "hash": "0x40dd48879a5f3e6e86860ed21ed921ac159714893ee4e63b318c40f8e70b37a9",
      "transactionType": "CALL",
      "contractName": null,
      "contractAddress": "0x0165878a594ca255338adfa4d48449f69242eb8f",
      "function": "setUserCompliance(address,bool,bytes32)",
      "arguments": [
        "0xf39Fd6e51aad88F6F4ce6aB8827279cffFb92266",
        "true",
        "0xc7e473bda59eca1142c4f4668171c63902266a759b99a17e40585c025faad577"
      ],
      "transaction": {
        "from": "0xf39fd6e51aad88f6f4ce6ab8827279cfffb92266",
        "to": "0x0165878a594ca255338adfa4d48449f69242eb8f",
        "gas": "0xb00f",
        "value": "0x0",
        "input": "0x1806f92c000000000000000000000000f39fd6e51aad88f6f4ce6ab8827279cfffb922660000000000000000000000000000000000000000000000000000000000000001c7e473bda59eca1142c4f4668171c63902266a759b99a17e40585c025faad577",
        "nonce": "0x13",
        "chainId": "0x7a69"
      },
      "additionalContracts": [],
      "isFixedGasLimit": false
    },
    {
      "hash": "0xee63bae590a4a71b136398cf69c5a80e6b1089fe32822863e04a99fe2392d11b",
      "transactionType": "CALL",
      "contractName": null,
      "contractAddress": "0xa513e6e4b8f2a923d98304ec87f64353c4d5c853",
      "function": "submitProof((bytes32,bytes,uint256,address))",
      "arguments": [
        "(0x745ca2eb8db7fb28969f1d3608aef9b62e84f097af5fe5f044fe39c7f551520e, 0xc7e473bda59eca1142c4f4668171c63902266a759b99a17e40585c025faad577, 1763966463, 0xf39Fd6e51aad88F6F4ce6aB8827279cffFb92266)"
      ],
      "transaction": {
        "from": "0xf39fd6e51aad88f6f4ce6ab8827279cfffb92266",
        "to": "0xa513e6e4b8f2a923d98304ec87f64353c4d5c853",
        "gas": "0x1336f",
        "value": "0x0",
        "input": "0x61cd93c80000000000000000000000000000000000000000000000000000000000000020745ca2eb8db7fb28969f1d3608aef9b62e84f097af5fe5f044fe39c7f551520e0000000000000000000000000000000000000000000000000000000000000080000000000000000000000000000000000000000000000000000000006923fdff000000000000000000000000f39fd6e51aad88f6f4ce6ab8827279cfffb922660000000000000000000000000000000000000000000000000000000000000020c7e473bda59eca1142c4f4668171c63902266a759b99a17e40585c025faad577",
        "nonce": "0x14",
        "chainId": "0x7a69"
      },
      "additionalContracts": [],
      "isFixedGasLimit": false
    }
  ],
  "receipts": [
    {
      "status": "0x1",
      "cumulativeGasUsed": "0x7862",
      "logs": [
        {
          "address": "0x0165878a594ca255338adfa4d48449f69242eb8f",
          "topics": [
            "0x3770c7285d98f320f88c0ad6aa28f3fa77a7a8fbe3099520299db72cb7426002",
            "0x00000000000000000000000070997970c51812dc3a010c7d01b50e0d17dc79c8"
          ],
          "data": "0x0000000000000000000000000000000000000000000000000000000000000001c7e473bda59eca1142c4f4668171c63902266a759b99a17e40585c025faad577",
          "blockHash": "0xf2652c4e8c613918c8e00f7291a97eb68e0926e02a43f2d3769275168c4e9757",
          "blockNumber": "0x13",
          "blockTimestamp": "0x6923fe19",
          "transactionHash": "0x3777d5b8086a4b25209f46a93e78357adc102001035a13e4a104e06fca830c0f",
          "transactionIndex": "0x0",
          "logIndex": "0x0",
          "removed": false
        }
      ],
      "logsBloom": "0x00000000000000000002000000000000000000000000000000000000000000000000000000000000000000000000000000000000000000000000000000000000001000000000000000000000000000000000000000000000000000000000000000000800000000000000000000000000000000000000000000000000000000040000000000000000000000000000000000000000000000000000000000000000000000000000000200000000000000000000000000000000000000000000000000000004000000000000000000000000000000000000000000000000000000000000000000000000000000000000000021000000000000000000000000000000",
      "type": "0x2",
      "transactionHash": "0x3777d5b8086a4b25209f46a93e78357adc102001035a13e4a104e06fca830c0f",
      "transactionIndex": "0x0",
      "blockHash": "0xf2652c4e8c613918c8e00f7291a97eb68e0926e02a43f2d3769275168c4e9757",
      "blockNumber": "0x13",
      "gasUsed": "0x7862",
      "effectiveGasPrice": "0x5ae2911",
      "blobGasPrice": "0x1",
      "from": "0xf39fd6e51aad88f6f4ce6ab8827279cfffb92266",
      "to": "0x0165878a594ca255338adfa4d48449f69242eb8f",
      "contractAddress": null
    },
    {
      "status": "0x1",
      "cumulativeGasUsed": "0x7862",
      "logs": [
        {
          "address": "0x0165878a594ca255338adfa4d48449f69242eb8f",
          "topics": [
            "0x3770c7285d98f320f88c0ad6aa28f3fa77a7a8fbe3099520299db72cb7426002",
            "0x000000000000000000000000f39fd6e51aad88f6f4ce6ab8827279cfffb92266"
          ],
          "data": "0x0000000000000000000000000000000000000000000000000000000000000001c7e473bda59eca1142c4f4668171c63902266a759b99a17e40585c025faad577",
          "blockHash": "0xe7a253221a80319b0afcb21aa57b4d8081990d23b2cd936da371e6274bd1cb45",
          "blockNumber": "0x14",
          "blockTimestamp": "0x6923fe19",
          "transactionHash": "0x40dd48879a5f3e6e86860ed21ed921ac159714893ee4e63b318c40f8e70b37a9",
          "transactionIndex": "0x0",
          "logIndex": "0x0",
          "removed": false
        }
      ],
      "logsBloom": "0x00000000000000000000000000000000000000000000000000000000000000000000000000000000000000000000000000000000000000000000000000000000001000000000000000000000000000000000000000000000000000000000000000000000000000000000000100000000000000000000000000000000000000040000000000000000000000000000000000000000000000000000000000000000000000000000000200000000000000000000000000000000000000000000000000000004000000200000000000000000000000002000000000000000000000000000000000000000000000000000000020000000000000000000000000000000",
      "type": "0x2",
      "transactionHash": "0x40dd48879a5f3e6e86860ed21ed921ac159714893ee4e63b318c40f8e70b37a9",
      "transactionIndex": "0x0",
      "blockHash": "0xe7a253221a80319b0afcb21aa57b4d8081990d23b2cd936da371e6274bd1cb45",
      "blockNumber": "0x14",
      "gasUsed": "0x7862",
      "effectiveGasPrice": "0x4f8c38a",
      "blobGasPrice": "0x1",
      "from": "0xf39fd6e51aad88f6f4ce6ab8827279cfffb92266",
      "to": "0x0165878a594ca255338adfa4d48449f69242eb8f",
      "contractAddress": null
    },
    {
      "status": "0x1",
      "cumulativeGasUsed": "0xde94",
      "logs": [
        {
          "address": "0xa513e6e4b8f2a923d98304ec87f64353c4d5c853",
          "topics": [
            "0x3cbd2fea20b478de3a1ffaf47011735f993c2c4e13dc9a4f039f3adac8f4892f",
            "0x000000000000000000000000f39fd6e51aad88f6f4ce6ab8827279cfffb92266"
          ],
          "data": "0x745ca2eb8db7fb28969f1d3608aef9b62e84f097af5fe5f044fe39c7f551520ec7e473bda59eca1142c4f4668171c63902266a759b99a17e40585c025faad577",
          "blockHash": "0x37107f27873b7c15e9ff47dad2e541ca40ccb038eec6a9b62d9cc4b4c6b50e25",
          "blockNumber": "0x15",
          "blockTimestamp": "0x6923fe19",
          "transactionHash": "0xee63bae590a4a71b136398cf69c5a80e6b1089fe32822863e04a99fe2392d11b",
          "transactionIndex": "0x0",
          "logIndex": "0x0",
          "removed": false
        }
      ],
      "logsBloom": "0x00000000000000000000000000000000000000000000000000000000000000010000000000000000001000000000000000000000000000000000000000000000000000000000000000000000000000000000000010000000010000000000000000000000000000000000000100000000000000000000000000000000000000000000000000000000000000000000000000000000000000000000000000000000000008000000000000000000000000000000000000000000000000000000000000000000000000200000000000000000000000002000000000000000000000000000000000000000000000000000000000000000004000000000000000000000",
      "type": "0x2",
      "transactionHash": "0xee63bae590a4a71b136398cf69c5a80e6b1089fe32822863e04a99fe2392d11b",
      "transactionIndex": "0x0",
      "blockHash": "0x37107f27873b7c15e9ff47dad2e541ca40ccb038eec6a9b62d9cc4b4c6b50e25",
      "blockNumber": "0x15",
      "gasUsed": "0xde94",
      "effectiveGasPrice": "0x459fec7",
      "blobGasPrice": "0x1",
      "from": "0xf39fd6e51aad88f6f4ce6ab8827279cfffb92266",
      "to": "0xa513e6e4b8f2a923d98304ec87f64353c4d5c853",
      "contractAddress": null
    }
  ],
  "libraries": [],
  "pending": [],
  "returns": {},
  "timestamp": 1763966489568,
  "chain": 31337,
  "commit": "d5e8731"
}