{
  "transactions": [
    {
      "hash": "0x7e7e994fae1cc648d0fc737333010c91d3ea8e2e4c5b0790643bea21024e5e78",
      "transactionType": "CALL",
      "contractName": null,
      "contractAddress": "0x9fe46736679d2d9a65f0992f2272de9f3c7fa6e0",
      "function": "setUserCompliance(address,bool,bytes32)",
      "arguments": [
        "0x70997970C51812dc3A010C7d01b50e0d17dc79C8",
        "true",
        "0xc7e473bda59eca1142c4f4668171c63902266a759b99a17e40585c025faad577"
      ],
      "transaction": {
        "from": "0xf39fd6e51aad88f6f4ce6ab8827279cfffb92266",
        "to": "0x9fe46736679d2d9a65f0992f2272de9f3c7fa6e0",
        "gas": "0x1936e",
        "value": "0x0",
        "input": "0x1806f92c00000000000000000000000070997970c51812dc3a010c7d01b50e0d17dc79c80000000000000000000000000000000000000000000000000000000000000001c7e473bda59eca1142c4f4668171c63902266a759b99a17e40585c025faad577",
        "nonce": "0x8",
        "chainId": "0x7a69"
      },
      "additionalContracts": [],
      "isFixedGasLimit": false
    },
    {
      "hash": "0x9a9f6d72b53f4cd6d605630f789371bbc7ac51fe64088da5f24549a30c89a092",
      "transactionType": "CALL",
      "contractName": null,
      "contractAddress": "0x9fe46736679d2d9a65f0992f2272de9f3c7fa6e0",
      "function": "setUserCompliance(address,bool,bytes32)",
      "arguments": [
        "0xf39Fd6e51aad88F6F4ce6aB8827279cffFb92266",
        "true",
        "0xc7e473bda59eca1142c4f4668171c63902266a759b99a17e40585c025faad577"
      ],
      "transaction": {
        "from": "0xf39fd6e51aad88f6f4ce6ab8827279cfffb92266",
        "to": "0x9fe46736679d2d9a65f0992f2272de9f3c7fa6e0",
        "gas": "0xb00f",
        "value": "0x0",
        "input": "0x1806f92c000000000000000000000000f39fd6e51aad88f6f4ce6ab8827279cfffb922660000000000000000000000000000000000000000000000000000000000000001c7e473bda59eca1142c4f4668171c63902266a759b99a17e40585c025faad577",
        "nonce": "0x9",
        "chainId": "0x7a69"
      },
      "additionalContracts": [],
      "isFixedGasLimit": false
    },
    {
      "hash": "0x1c0765e077c8a62fe0ae7f2901cbd3d988b40878677f2ac870562bbd3d259a0a",
      "transactionType": "CALL",
      "contractName": null,
      "contractAddress": "0xcf7ed3acca5a467e9e704c703e8d87f634fb0fc9",
      "function": "submitProof((bytes32,bytes,uint256,address))",
      "arguments": [
        "(0x6f31e742186552b472b4586ebeb0b87d1361970a2e6e2f039b599a7e05c0280f, 0xc7e473bda59eca1142c4f4668171c63902266a759b99a17e40585c025faad577, 1763966157, 0xf39Fd6e51aad88F6F4ce6aB8827279cffFb92266)"
      ],
      "transaction": {
        "from": "0xf39fd6e51aad88f6f4ce6ab8827279cfffb92266",
        "to": "0xcf7ed3acca5a467e9e704c703e8d87f634fb0fc9",
        "gas": "0x1336f",
        "value": "0x0",
        "input": "0x61cd93c800000000000000000000000000000000000000000000000000000000000000206f31e742186552b472b4586ebeb0b87d1361970a2e6e2f039b599a7e05c0280f0000000000000000000000000000000000000000000000000000000000000080000000000000000000000000000000000000000000000000000000006923fccd000000000000000000000000f39fd6e51aad88f6f4ce6ab8827279cfffb922660000000000000000000000000000000000000000000000000000000000000020c7e473bda59eca1142c4f4668171c63902266a759b99a17e40585c025faad577",
        "nonce": "0xa",
        "chainId": "0x7a69"
      },
      "additionalContracts": [],
      "isFixedGasLimit": false
    }
  ],
  "receipts": [
    {
      "status": "0x1",
      "cumulativeGasUsed": "0x113da",
      "logs": [
        {
          "address": "0x9fe46736679d2d9a65f0992f2272de9f3c7fa6e0",
          "topics": [
            "0x3770c7285d98f320f88c0ad6aa28f3fa77a7a8fbe3099520299db72cb7426002",
            "0x00000000000000000000000070997970c51812dc3a010c7d01b50e0d17dc79c8"
          ],
          "data": "0x0000000000000000000000000000000000000000000000000000000000000001c7e473bda59eca1142c4f4668171c63902266a759b99a17e40585c025faad577",
          "blockHash": "0xc6d6fff5b87b7cd2288b052eda7231d417dd3ff5043017d8964ff00feb524b9c",
          "blockNumber": "0x9",
          "blockTimestamp": "0x6923fce4",
          "transactionHash": "0x7e7e994fae1cc648d0fc737333010c91d3ea8e2e4c5b0790643bea21024e5e78",
          "transactionIndex": "0x0",
          "logIndex": "0x0",
          "removed": false
        }
      ],
      "logsBloom": "0x00000000000000000002000000000000000000000000000000000000000000000000000000000000000000000000000000000000000040200000000000000000000000000000000000000000000000000000000000000000000000000000000000000800000000000000000000000000000000000000000000000000000000040000000000000000000000000000000000000000000000000000000000000000000000000000000200000000000000000000000000000000000000000000000000000000000000000000000000000000000000000000000000000000000000000000000000000000000000000000000021000000000000400000000000000000",
      "type": "0x2",
      "transactionHash": "0x7e7e994fae1cc648d0fc737333010c91d3ea8e2e4c5b0790643bea21024e5e78",
      "transactionIndex": "0x0",
      "blockHash": "0xc6d6fff5b87b7cd2288b052eda7231d417dd3ff5043017d8964ff00feb524b9c",
      "blockNumber": "0x9",
      "gasUsed": "0x113da",
      "effectiveGasPrice": "0x157a8ea9",
      "blobGasPrice": "0x1",
      "from": "0xf39fd6e51aad88f6f4ce6ab8827279cfffb92266",
      "to": "0x9fe46736679d2d9a65f0992f2272de9f3c7fa6e0",
      "contractAddress": null
    },
    {
      "status": "0x1",
      "cumulativeGasUsed": "0x7862",
      "logs": [
        {
          "address": "0x9fe46736679d2d9a65f0992f2272de9f3c7fa6e0",
          "topics": [
            "0x3770c7285d98f320f88c0ad6aa28f3fa77a7a8fbe3099520299db72cb7426002",
            "0x000000000000000000000000f39fd6e51aad88f6f4ce6ab8827279cfffb92266"
          ],
          "data": "0x0000000000000000000000000000000000000000000000000000000000000001c7e473bda59eca1142c4f4668171c63902266a759b99a17e40585c025faad577",
          "blockHash": "0x0cb58903440ce7e528d59997b6ebf3dcbc17e1c25c644d52fbfa35a9d16db7ff",
          "blockNumber": "0xa",
          "blockTimestamp": "0x6923fce4",
          "transactionHash": "0x9a9f6d72b53f4cd6d605630f789371bbc7ac51fe64088da5f24549a30c89a092",
          "transactionIndex": "0x0",
          "logIndex": "0x0",
          "removed": false
        }
      ],
      "logsBloom": "0x00000000000000000000000000000000000000000000000000000000000000000000000000000000000000000000000000000000000040200000000000000000000000000000000000000000000000000000000000000000000000000000000000000000000000000000000100000000000000000000000000000000000000040000000000000000000000000000000000000000000000000000000000000000000000000000000200000000000000000000000000000000000000000000000000000000000000200000000000000000000000002000000000000000000000000000000000000000000000000000000020000000000000400000000000000000",
      "type": "0x2",
      "transactionHash": "0x9a9f6d72b53f4cd6d605630f789371bbc7ac51fe64088da5f24549a30c89a092",
      "transactionIndex": "0x0",
      "blockHash": "0x0cb58903440ce7e528d59997b6ebf3dcbc17e1c25c644d52fbfa35a9d16db7ff",
      "blockNumber": "0xa",
      "gasUsed": "0x7862",
      "effectiveGasPrice": "0x12ce7932",
      "blobGasPrice": "0x1",
      "from": "0xf39fd6e51aad88f6f4ce6ab8827279cfffb92266",
      "to": "0x9fe46736679d2d9a65f0992f2272de9f3c7fa6e0",
      "contractAddress": null
    },
    {
      "status": "0x1",
      "cumulativeGasUsed": "0xde94",
      "logs": [
        {
          "address": "0xcf7ed3acca5a467e9e704c703e8d87f634fb0fc9",
          "topics": [
            "0x3cbd2fea20b478de3a1ffaf47011735f993c2c4e13dc9a4f039f3adac8f4892f",
            "0x000000000000000000000000f39fd6e51aad88f6f4ce6ab8827279cfffb92266"
          ],
          "data": "0x6f31e742186552b472b4586ebeb0b87d1361970a2e6e2f039b599a7e05c0280fc7e473bda59eca1142c4f4668171c63902266a759b99a17e40585c025faad577",
          "blockHash": "0xd172a9a57d6e624498b4e8ca1f11b41cfc568578ee952376e8b9c1279f91671b",
          "blockNumber": "0xb",
          "blockTimestamp": "0x6923fce4",
          "transactionHash": "0x1c0765e077c8a62fe0ae7f2901cbd3d988b40878677f2ac870562bbd3d259a0a",
          "transactionIndex": "0x0",
          "logIndex": "0x0",
          "removed": false
        }
      ],
      "logsBloom": "0x00000000000000000000000000000000000000000000000000000000000000000000000000000000001000000000080000000000000000000000000000000001000000000000000000000000000000000000000000000000000000000000000000000000000000000000000100000000000000000000000000000000000000000000000008000000000000000000000000000000000000000000000000000000000008000000000000000000000000000000000000000000000000000000000000000000000000200000000000000000000000002000000000000000000000000000000000000000000000000000000000000000004000000000000000000000",
      "type": "0x2",
      "transactionHash": "0x1c0765e077c8a62fe0ae7f2901cbd3d988b40878677f2ac870562bbd3d259a0a",
      "transactionIndex": "0x0",
      "blockHash": "0xd172a9a57d6e624498b4e8ca1f11b41cfc568578ee952376e8b9c1279f91671b",
      "blockNumber": "0xb",
      "gasUsed": "0xde94",
      "effectiveGasPrice": "0x1075e694",
      "blobGasPrice": "0x1",
      "from": "0xf39fd6e51aad88f6f4ce6ab8827279cfffb92266",
      "to": "0xcf7ed3acca5a467e9e704c703e8d87f634fb0fc9",
      "contractAddress": null
    }
  ],
  "libraries": [],
  "pending": [],
  "returns": {},
  "timestamp": 1763966180815,
  "chain": 31337,
  "commit": "fd61488"
}