{
  "transactions": [
    {
      "hash": "0x0a38e213522e67bfb1b3bb77186e5d06c6825cb5a873592459561150500065b9",
      "transactionType": "CALL",
      "contractName": null,
      "contractAddress": "0xe7f1725e7734ce288f8367e1bb143e90bb3f0512",
      "function": "setUserCompliance(address,bool,bytes32)",
      "arguments": [
        "0x70997970C51812dc3A010C7d01b50e0d17dc79C8",
        "true",
        "0x43bd973d7a4b99ae1a3f6cc9f9c10da3759cc4cc386142b63ebbf56cc49c7817"
      ],
      "transaction": {
        "from": "0xf39fd6e51aad88f6f4ce6ab8827279cfffb92266",
        "to": "0xe7f1725e7734ce288f8367e1bb143e90bb3f0512",
        "gas": "0xb554",
        "value": "0x0",
        "input": "0x1806f92c00000000000000000000000070997970c51812dc3a010c7d01b50e0d17dc79c8000000000000000000000000000000000000000000000000000000000000000143bd973d7a4b99ae1a3f6cc9f9c10da3759cc4cc386142b63ebbf56cc49c7817",
        "nonce": "0xc",
        "chainId": "0x7a69"
      },
      "additionalContracts": [],
      "isFixedGasLimit": false
    }
  ],
  "receipts": [
    {
      "status": "0x1",
      "cumulativeGasUsed": "0x8348",
      "logs": [
        {
          "address": "0xe7f1725e7734ce288f8367e1bb143e90bb3f0512",
          "topics": [
            "0x3770c7285d98f320f88c0ad6aa28f3fa77a7a8fbe3099520299db72cb7426002",
            "0x00000000000000000000000070997970c51812dc3a010c7d01b50e0d17dc79c8"
          ],
          "data": "0x000000000000000000000000000000000000000000000000000000000000000143bd973d7a4b99ae1a3f6cc9f9c10da3759cc4cc386142b63ebbf56cc49c7817",
          "blockHash": "0xf4a6dcfb53a7de2feba9eb420c54bbcfaf7a08d47a9dd4cf50aaa01343bc9121",
          "blockNumber": "0xd",
          "blockTimestamp": "0x6925d322",
          "transactionHash": "0x0a38e213522e67bfb1b3bb77186e5d06c6825cb5a873592459561150500065b9",
          "transactionIndex": "0x0",
          "logIndex": "0x0",
          "removed": false
        }
      ],
      "logsBloom": "0x00000000000000000002000000000000000000000000000000000000000000000000000000000000000000000000000010000000000000000000000000000000000000000000000000000000000000000000000000000000000000000000000000000800000000000000000000000000000000000000000000000000000000040000000000000000000000000000000000000000000000000000000000000000000000000000000200000000000000000000000000000000000000000000000000000000000000000000000000001000000000000000000000000000000000000000000000000000000000000000000021000000000000800000000000000000",
      "type": "0x2",
      "transactionHash": "0x0a38e213522e67bfb1b3bb77186e5d06c6825cb5a873592459561150500065b9",
      "transactionIndex": "0x0",
      "blockHash": "0xf4a6dcfb53a7de2feba9eb420c54bbcfaf7a08d47a9dd4cf50aaa01343bc9121",
      "blockNumber": "0xd",
      "gasUsed": "0x8348",
      "effectiveGasPrice": "0xd124ea5",
      "blobGasPrice": "0x1",
      "from": "0xf39fd6e51aad88f6f4ce6ab8827279cfffb92266",
      "to": "0xe7f1725e7734ce288f8367e1bb143e90bb3f0512",
      "contractAddress": null
    }
  ],
  "libraries": [],
  "pending": [],
  "returns": {},
  "timestamp": 1764086562477,
  "chain": 31337,
  "commit": "2036950"
}